{
  "contractName": "PostContract",
  "abi": [
    {
      "inputs": [],
      "stateMutability": "nonpayable",
      "type": "constructor"
    },
    {
      "anonymous": false,
      "inputs": [
        {
          "indexed": true,
          "internalType": "uint256",
          "name": "postId",
          "type": "uint256"
        }
      ],
      "name": "Cheered",
      "type": "event"
    },
    {
      "anonymous": false,
      "inputs": [
        {
          "indexed": true,
          "internalType": "uint256",
          "name": "ownerId",
          "type": "uint256"
        },
        {
          "indexed": true,
          "internalType": "string",
          "name": "level",
          "type": "string"
        }
      ],
      "name": "LevelCreated",
      "type": "event"
    },
    {
      "anonymous": false,
      "inputs": [
        {
          "indexed": true,
          "internalType": "uint256",
          "name": "ownerId",
          "type": "uint256"
        },
        {
          "indexed": true,
          "internalType": "string",
          "name": "level",
          "type": "string"
        }
      ],
      "name": "LevelUpdated",
      "type": "event"
    },
    {
      "anonymous": false,
      "inputs": [
        {
          "indexed": true,
          "internalType": "uint256",
          "name": "postId",
          "type": "uint256"
        },
        {
          "indexed": true,
          "internalType": "uint256",
          "name": "ownerId",
          "type": "uint256"
        }
      ],
      "name": "PostCreated",
      "type": "event"
    },
    {
      "anonymous": false,
      "inputs": [
        {
          "indexed": false,
          "internalType": "uint256",
          "name": "id",
          "type": "uint256"
        },
        {
          "indexed": true,
          "internalType": "string",
          "name": "name",
          "type": "string"
        },
        {
          "indexed": true,
          "internalType": "address",
          "name": "wallet",
          "type": "address"
        }
      ],
      "name": "UserCreated",
      "type": "event"
    },
    {
      "anonymous": false,
      "inputs": [
        {
          "indexed": false,
          "internalType": "uint256",
          "name": "id",
          "type": "uint256"
        },
        {
          "indexed": true,
          "internalType": "string",
          "name": "name",
          "type": "string"
        },
        {
          "indexed": true,
          "internalType": "address",
          "name": "wallet",
          "type": "address"
        }
      ],
      "name": "UserUpdated",
      "type": "event"
    },
    {
      "inputs": [
        {
          "internalType": "uint256",
          "name": "_ownerId",
          "type": "uint256"
        },
        {
          "internalType": "string",
          "name": "_level",
          "type": "string"
        },
        {
          "internalType": "string",
          "name": "_ipfsHash",
          "type": "string"
        }
      ],
      "name": "addLevel",
      "outputs": [
        {
          "internalType": "bool",
          "name": "status",
          "type": "bool"
        }
      ],
      "stateMutability": "nonpayable",
      "type": "function"
    },
    {
      "inputs": [
        {
          "internalType": "string",
          "name": "_name",
          "type": "string"
        }
      ],
      "name": "createUser",
      "outputs": [
        {
          "internalType": "uint256",
          "name": "_userId",
          "type": "uint256"
        }
      ],
      "stateMutability": "nonpayable",
      "type": "function"
    },
    {
      "inputs": [
        {
          "internalType": "uint256",
          "name": "_ownerId",
          "type": "uint256"
        },
        {
          "internalType": "string",
          "name": "_level",
          "type": "string"
        }
      ],
      "name": "getLevel",
      "outputs": [
        {
          "internalType": "string",
          "name": "_ipfsHash",
          "type": "string"
        }
      ],
      "stateMutability": "view",
      "type": "function",
      "constant": true
    },
    {
      "inputs": [
        {
          "internalType": "address",
          "name": "_wallet",
          "type": "address"
        }
      ],
      "name": "getUser",
      "outputs": [
        {
          "internalType": "uint256",
          "name": "id",
          "type": "uint256"
        },
        {
          "internalType": "string",
          "name": "name",
          "type": "string"
        },
        {
          "internalType": "address",
          "name": "wallet",
          "type": "address"
        }
      ],
      "stateMutability": "view",
      "type": "function",
      "constant": true
    },
    {
      "inputs": [
        {
          "internalType": "uint256",
          "name": "_ownerId",
          "type": "uint256"
        },
        {
          "internalType": "uint256",
          "name": "_userId",
          "type": "uint256"
        },
        {
          "internalType": "string",
          "name": "_level",
          "type": "string"
        }
      ],
      "name": "isSubscribed",
      "outputs": [
        {
          "internalType": "bool",
          "name": "subscribed",
          "type": "bool"
        }
      ],
      "stateMutability": "view",
      "type": "function",
      "constant": true
    },
    {
      "inputs": [],
      "name": "postId",
      "outputs": [
        {
          "internalType": "uint256",
          "name": "",
          "type": "uint256"
        }
      ],
      "stateMutability": "view",
      "type": "function",
      "constant": true
    },
    {
      "inputs": [
        {
          "internalType": "uint256",
          "name": "_ownerId",
          "type": "uint256"
        },
        {
          "internalType": "uint256",
          "name": "_userId",
          "type": "uint256"
        },
        {
          "internalType": "string",
          "name": "_level",
          "type": "string"
        }
      ],
      "name": "subscribe",
      "outputs": [
        {
          "internalType": "bool",
          "name": "subscribed",
          "type": "bool"
        }
      ],
      "stateMutability": "nonpayable",
      "type": "function"
    },
    {
      "inputs": [
        {
          "internalType": "uint256",
          "name": "_ownerId",
          "type": "uint256"
        },
        {
          "internalType": "string",
          "name": "_level",
          "type": "string"
        },
        {
          "internalType": "string",
          "name": "_ipfsHash",
          "type": "string"
        }
      ],
      "name": "updateLevel",
      "outputs": [
        {
          "internalType": "bool",
          "name": "updatePerformed",
          "type": "bool"
        }
      ],
      "stateMutability": "nonpayable",
      "type": "function"
    },
    {
      "inputs": [
        {
          "internalType": "string",
          "name": "_name",
          "type": "string"
        },
        {
          "internalType": "address",
          "name": "_wallet",
          "type": "address"
        }
      ],
      "name": "updateUser",
      "outputs": [],
      "stateMutability": "nonpayable",
      "type": "function"
    },
    {
      "inputs": [],
      "name": "userId",
      "outputs": [
        {
          "internalType": "uint256",
          "name": "",
          "type": "uint256"
        }
      ],
      "stateMutability": "view",
      "type": "function",
      "constant": true
    },
    {
      "inputs": [
        {
          "internalType": "uint256",
          "name": "_postId",
          "type": "uint256"
        }
      ],
      "name": "getPost",
      "outputs": [
        {
          "internalType": "string",
          "name": "ipfsHash",
          "type": "string"
        },
        {
          "internalType": "address",
          "name": "owner",
          "type": "address"
        }
      ],
      "stateMutability": "view",
      "type": "function",
      "constant": true
    },
    {
      "inputs": [
        {
          "internalType": "uint256",
          "name": "_postOwnerId",
          "type": "uint256"
        },
        {
          "internalType": "string",
          "name": "_level",
          "type": "string"
        },
        {
          "internalType": "string",
          "name": "_hash",
          "type": "string"
        }
      ],
      "name": "addPost",
      "outputs": [
        {
          "internalType": "uint256",
          "name": "_postId",
          "type": "uint256"
        }
      ],
      "stateMutability": "nonpayable",
      "type": "function"
    },
    {
      "inputs": [
        {
          "internalType": "uint256",
          "name": "_postId",
          "type": "uint256"
        }
      ],
      "name": "cheerCreator",
      "outputs": [],
      "stateMutability": "payable",
      "type": "function",
      "payable": true
    },
    {
      "inputs": [
        {
          "internalType": "uint256",
          "name": "_postId",
          "type": "uint256"
        }
      ],
      "name": "getCheeredAmount",
      "outputs": [
        {
          "internalType": "uint256",
          "name": "_cheeredAmount",
          "type": "uint256"
        }
      ],
      "stateMutability": "view",
      "type": "function",
      "constant": true
    },
    {
      "inputs": [
        {
          "internalType": "address",
          "name": "_user",
          "type": "address"
        }
      ],
      "name": "getUserCheeredCreators",
      "outputs": [
        {
          "internalType": "address[]",
          "name": "",
          "type": "address[]"
        }
      ],
      "stateMutability": "view",
      "type": "function",
      "constant": true
    },
    {
      "inputs": [
        {
          "internalType": "uint256",
          "name": "_ownerId",
          "type": "uint256"
        },
        {
          "internalType": "uint256",
          "name": "_userId",
          "type": "uint256"
        },
        {
          "internalType": "string",
          "name": "_level",
          "type": "string"
        }
      ],
      "name": "getPostsForUser",
      "outputs": [
        {
          "internalType": "uint256[]",
          "name": "",
          "type": "uint256[]"
        }
      ],
      "stateMutability": "view",
      "type": "function",
      "constant": true
    },
    {
      "inputs": [
        {
          "internalType": "uint256[]",
          "name": "_ownerIds",
          "type": "uint256[]"
        }
      ],
      "name": "getPublicPosts",
      "outputs": [
        {
          "internalType": "uint256[]",
          "name": "",
          "type": "uint256[]"
        }
      ],
      "stateMutability": "view",
      "type": "function",
      "constant": true
    }
  ],
  "bytecode": "0x6080604052600160025560016007553480156200001b57600080fd5b506040516200002a90620000fa565b604051809103906000f08015801562000047573d6000803e3d6000fd5b50600660006101000a81548173ffffffffffffffffffffffffffffffffffffffff021916908373ffffffffffffffffffffffffffffffffffffffff160217905550604051620000969062000108565b604051809103906000f080158015620000b3573d6000803e3d6000fd5b50600560006101000a81548173ffffffffffffffffffffffffffffffffffffffff021916908373ffffffffffffffffffffffffffffffffffffffff16021790555062000116565b610b798062002bde83390190565b610e16806200375783390190565b612ab880620001266000396000f3fe6080604052600436106100fe5760003560e01c8063654f9c4f11610095578063a484356311610064578063a484356314610a51578063e8174a8114610b39578063eba1520f14610c36578063f061f3ae14610d33578063facb274914610d61576100fe565b8063654f9c4f146107015780636bcf54a8146107f55780636f77926b1461089b57806374cd37311461099f576100fe565b8063507ffba5116100d1578063507ffba51461048457806358975919146105605780635eadbadc1461058b57806360a0ecda146106d6576100fe565b80632c1c7658146101035780632eb0c2c91461015257806340731c24146102835780634179c1ac1461036a575b600080fd5b34801561010f57600080fd5b5061013c6004803603602081101561012657600080fd5b8101908080359060200190929190505050610e5a565b6040518082815260200191505060405180910390f35b34801561015e57600080fd5b5061022c6004803603606081101561017557600080fd5b810190808035906020019092919080359060200190929190803590602001906401000000008111156101a657600080fd5b8201836020820111156101b857600080fd5b803590602001918460018302840111640100000000831117156101da57600080fd5b91908080601f016020809104026020016040519081016040528093929190818152602001838380828437600081840152601f19601f820116905080830192505050505050509192919290505050610ef9565b6040518080602001828103825283818151815260200191508051906020019060200280838360005b8381101561026f578082015181840152602081019050610254565b505050509050019250505060405180910390f35b34801561028f57600080fd5b506102bc600480360360208110156102a657600080fd5b81019080803590602001909291905050506110da565b60405180806020018373ffffffffffffffffffffffffffffffffffffffff1673ffffffffffffffffffffffffffffffffffffffff168152602001828103825284818151815260200191508051906020019080838360005b8381101561032e578082015181840152602081019050610313565b50505050905090810190601f16801561035b5780820380516001836020036101000a031916815260200191505b50935050505060405180910390f35b34801561037657600080fd5b5061042d6004803603602081101561038d57600080fd5b81019080803590602001906401000000008111156103aa57600080fd5b8201836020820111156103bc57600080fd5b803590602001918460208302840111640100000000831117156103de57600080fd5b919080806020026020016040519081016040528093929190818152602001838360200280828437600081840152601f19601f820116905080830192505050505050509192919290505050611215565b6040518080602001828103825283818151815260200191508051906020019060200280838360005b83811015610470578082015181840152602081019050610455565b505050509050019250505060405180910390f35b34801561049057600080fd5b5061054a600480360360208110156104a757600080fd5b81019080803590602001906401000000008111156104c457600080fd5b8201836020820111156104d657600080fd5b803590602001918460018302840111640100000000831117156104f857600080fd5b91908080601f016020809104026020016040519081016040528093929190818152602001838380828437600081840152601f19601f820116905080830192505050505050509192919290505050611388565b6040518082815260200191505060405180910390f35b34801561056c57600080fd5b506105756116be565b6040518082815260200191505060405180910390f35b34801561059757600080fd5b5061065b600480360360408110156105ae57600080fd5b8101908080359060200190929190803590602001906401000000008111156105d557600080fd5b8201836020820111156105e757600080fd5b8035906020019184600183028401116401000000008311171561060957600080fd5b91908080601f016020809104026020016040519081016040528093929190818152602001838380828437600081840152601f19601f8201169050808301925050505050505091929192905050506116c4565b6040518080602001828103825283818151815260200191508051906020019080838360005b8381101561069b578082015181840152602081019050610680565b50505050905090810190601f1680156106c85780820380516001836020036101000a031916815260200191505b509250505060405180910390f35b3480156106e257600080fd5b506106eb6117e0565b6040518082815260200191505060405180910390f35b34801561070d57600080fd5b506107db6004803603606081101561072457600080fd5b8101908080359060200190929190803590602001909291908035906020019064010000000081111561075557600080fd5b82018360208201111561076757600080fd5b8035906020019184600183028401116401000000008311171561078957600080fd5b91908080601f016020809104026020016040519081016040528093929190818152602001838380828437600081840152601f19601f8201169050808301925050505050505091929192905050506117e6565b604051808215151515815260200191505060405180910390f35b34801561080157600080fd5b506108446004803603602081101561081857600080fd5b81019080803573ffffffffffffffffffffffffffffffffffffffff16906020019092919050505061192e565b6040518080602001828103825283818151815260200191508051906020019060200280838360005b8381101561088757808201518184015260208101905061086c565b505050509050019250505060405180910390f35b3480156108a757600080fd5b506108ea600480360360208110156108be57600080fd5b81019080803573ffffffffffffffffffffffffffffffffffffffff1690602001909291905050506119fb565b60405180848152602001806020018373ffffffffffffffffffffffffffffffffffffffff1673ffffffffffffffffffffffffffffffffffffffff168152602001828103825284818151815260200191508051906020019080838360005b83811015610962578082015181840152602081019050610947565b50505050905090810190601f16801561098f5780820380516001836020036101000a031916815260200191505b5094505050505060405180910390f35b3480156109ab57600080fd5b50610a37600480360360608110156109c257600080fd5b810190808035906020019092919080359060200190929190803590602001906401000000008111156109f357600080fd5b820183602082011115610a0557600080fd5b80359060200191846001830284011164010000000083111715610a2757600080fd5b9091929391929390505050611b04565b604051808215151515815260200191505060405180910390f35b348015610a5d57600080fd5b50610b3760048036036040811015610a7457600080fd5b8101908080359060200190640100000000811115610a9157600080fd5b820183602082011115610aa357600080fd5b80359060200191846001830284011164010000000083111715610ac557600080fd5b91908080601f016020809104026020016040519081016040528093929190818152602001838380828437600081840152601f19601f820116905080830192505050505050509192919290803573ffffffffffffffffffffffffffffffffffffffff169060200190929190505050611d41565b005b348015610b4557600080fd5b50610c1c60048036036060811015610b5c57600080fd5b810190808035906020019092919080359060200190640100000000811115610b8357600080fd5b820183602082011115610b9557600080fd5b80359060200191846001830284011164010000000083111715610bb757600080fd5b909192939192939080359060200190640100000000811115610bd857600080fd5b820183602082011115610bea57600080fd5b80359060200191846001830284011164010000000083111715610c0c57600080fd5b9091929391929390505050612067565b604051808215151515815260200191505060405180910390f35b348015610c4257600080fd5b50610d1960048036036060811015610c5957600080fd5b810190808035906020019092919080359060200190640100000000811115610c8057600080fd5b820183602082011115610c9257600080fd5b80359060200191846001830284011164010000000083111715610cb457600080fd5b909192939192939080359060200190640100000000811115610cd557600080fd5b820183602082011115610ce757600080fd5b80359060200191846001830284011164010000000083111715610d0957600080fd5b909192939192939050505061224e565b604051808215151515815260200191505060405180910390f35b610d5f60048036036020811015610d4957600080fd5b81019080803590602001909291905050506123db565b005b348015610d6d57600080fd5b50610e4460048036036060811015610d8457600080fd5b810190808035906020019092919080359060200190640100000000811115610dab57600080fd5b820183602082011115610dbd57600080fd5b80359060200191846001830284011164010000000083111715610ddf57600080fd5b909192939192939080359060200190640100000000811115610e0057600080fd5b820183602082011115610e1257600080fd5b80359060200191846001830284011164010000000083111715610e3457600080fd5b9091929391929390505050612717565b6040518082815260200191505060405180910390f35b60008082118015610e6c575060075482105b610ede576040517f08c379a000000000000000000000000000000000000000000000000000000000815260040180806020018281038252600e8152602001807f696e76616c696420706f7374496400000000000000000000000000000000000081525060200191505060405180910390fd5b60096000838152602001908152602001600020549050919050565b606060008311610f71576040517f08c379a000000000000000000000000000000000000000000000000000000000815260040180806020018281038252600e8152602001807f696e76616c69642075736572496400000000000000000000000000000000000081525060200191505060405180910390fd5b6060600a604051908082528060200260200182016040528015610fa35781602001602082028038833980820191505090505b50905060008090506060600b6000888152602001908152602001600020856040518082805190602001908083835b60208310610ff45780518252602082019150602081019050602083039250610fd1565b6001836020036101000a038019825116818451168082178552505050505050905001915050908152602001604051809103902080548060200260200160405190810160405280929190818152602001828054801561107157602002820191906000526020600020905b81548152602001906001019080831161105d575b5050505050905060008151905060008090505b818110156110cb5782818151811061109857fe5b60200260200101518585815181106110ac57fe5b6020026020010181815250506001840193508080600101915050611084565b50839450505050509392505050565b606060006110e661292d565b60086000858152602001908152602001600020604051806040016040529081600082018054600181600116156101000203166002900480601f01602080910402602001604051908101604052809291908181526020018280546001816001161561010002031660029004801561119d5780601f106111725761010080835404028352916020019161119d565b820191906000526020600020905b81548152906001019060200180831161118057829003601f168201915b505050505081526020016001820160009054906101000a900473ffffffffffffffffffffffffffffffffffffffff1673ffffffffffffffffffffffffffffffffffffffff1673ffffffffffffffffffffffffffffffffffffffff16815250509050806000015181602001518191509250925050915091565b606080600a6040519080825280602002602001820160405280156112485781602001602082028038833980820191505090505b509050600080905060008451905060008090505b8181101561137c576060600b600088848151811061127657fe5b6020026020010151815260200190815260200160002060405180807f7075626c696300000000000000000000000000000000000000000000000000008152506006019050908152602001604051809103902080548060200260200160405190810160405280929190818152602001828054801561131257602002820191906000526020600020905b8154815260200190600101908083116112fe575b5050505050905060008151905060008090505b8181101561136c5782818151811061133957fe5b602002602001015187878151811061134d57fe5b6020026020010181815250506001860195508080600101915050611325565b505050808060010191505061125c565b50829350505050919050565b6000336000600360008373ffffffffffffffffffffffffffffffffffffffff1673ffffffffffffffffffffffffffffffffffffffff1681526020019081526020016000205414611440576040517f08c379a00000000000000000000000000000000000000000000000000000000081526004018080602001828103825260138152602001807f5573657220616c7265616479206578697374730000000000000000000000000081525060200191505060405180910390fd5b3383600073ffffffffffffffffffffffffffffffffffffffff168273ffffffffffffffffffffffffffffffffffffffff1614158015611480575060008151115b61148957600080fd5b60405180604001604052808681526020013373ffffffffffffffffffffffffffffffffffffffff1681525060046000600254815260200190815260200160002060008201518160000190805190602001906114e592919061295d565b5060208201518160010160006101000a81548173ffffffffffffffffffffffffffffffffffffffff021916908373ffffffffffffffffffffffffffffffffffffffff160217905550905050600254600360003373ffffffffffffffffffffffffffffffffffffffff1673ffffffffffffffffffffffffffffffffffffffff1681526020019081526020016000208190555060025493506001600260008282540192505081905550836002541415611604576040517f08c379a000000000000000000000000000000000000000000000000000000000815260040180806020018281038252601b8152602001807f657870656374656420696e6372656d656e74656420757365724964000000000081525060200191505060405180910390fd5b3373ffffffffffffffffffffffffffffffffffffffff16856040518082805190602001908083835b6020831061164f578051825260208201915060208101905060208303925061162c565b6001836020036101000a03801982511681845116808217855250505050505090500191505060405180910390207f1c81d7053f5e6f875e0d7b584d3354071899b7dc927e6d7b48b58caa90cf3de8866040518082815260200191505060405180910390a3839350505050919050565b60025481565b6060600080848152602001908152602001600020826040518082805190602001908083835b6020831061170c57805182526020820191506020810190506020830392506116e9565b6001836020036101000a03801982511681845116808217855250505050505090500191505090815260200160405180910390208054600181600116156101000203166002900480601f0160208091040260200160405190810160405280929190818152602001828054600181600116156101000203166002900480156117d35780601f106117a8576101008083540402835291602001916117d3565b820191906000526020600020905b8154815290600101906020018083116117b657829003601f168201915b5050505050905092915050565b60075481565b600080905060008090505b60016000868152602001908152602001600020836040518082805190602001908083835b602083106118385780518252602082019150602081019050602083039250611815565b6001836020036101000a038019825116818451168082178552505050505050905001915050908152602001604051809103902080549050811015611923578360016000878152602001908152602001600020846040518082805190602001908083835b602083106118be578051825260208201915060208101905060208303925061189b565b6001836020036101000a038019825116818451168082178552505050505050905001915050908152602001604051809103902082815481106118fc57fe5b906000526020600020015414156119165760019150611923565b80806001019150506117f1565b508090509392505050565b6060600a60008373ffffffffffffffffffffffffffffffffffffffff1673ffffffffffffffffffffffffffffffffffffffff1681526020019081526020016000208054806020026020016040519081016040528092919081815260200182805480156119ef57602002820191906000526020600020905b8160009054906101000a900473ffffffffffffffffffffffffffffffffffffffff1673ffffffffffffffffffffffffffffffffffffffff16815260200190600101908083116119a5575b50505050509050919050565b600060606000600360008573ffffffffffffffffffffffffffffffffffffffff1673ffffffffffffffffffffffffffffffffffffffff168152602001908152602001600020549250600460008481526020019081526020016000206000018054600181600116156101000203166002900480601f016020809104026020016040519081016040528092919081815260200182805460018160011615610100020316600290048015611aed5780601f10611ac257610100808354040283529160200191611aed565b820191906000526020600020905b815481529060010190602001808311611ad057829003601f168201915b505050505091508282859250925092509193909250565b60008483838080601f016020809104026020016040519081016040528093929190818152602001838380828437600081840152601f19601f8201169050808301925050505050505060405160200180600001905060405160208183030381529060405280519060200120600080848152602001908152602001600020826040518082805190602001908083835b60208310611bb45780518252602082019150602081019050602083039250611b91565b6001836020036101000a03801982511681845116808217855250505050505090500191505090815260200160405180910390206040516020018082805460018160011615610100020316600290048015611c455780601f10611c23576101008083540402835291820191611c45565b820191906000526020600020905b815481529060010190602001808311611c31575b5050915050604051602081830303815290604052805190602001201415611cd4576040517f08c379a00000000000000000000000000000000000000000000000000000000081526004018080602001828103825260148152602001807f4c6576656c20646f65736e27742065786973747300000000000000000000000081525060200191505060405180910390fd5b6001600088815260200190815260200160002085856040518083838082843780830192505050925050509081526020016040518091039020869080600181540180825580915050600190039060005260206000200160009091909190915055600192505050949350505050565b806000600360008373ffffffffffffffffffffffffffffffffffffffff1673ffffffffffffffffffffffffffffffffffffffff1681526020019081526020016000205414611df7576040517f08c379a00000000000000000000000000000000000000000000000000000000081526004018080602001828103825260138152602001807f5573657220616c7265616479206578697374730000000000000000000000000081525060200191505060405180910390fd5b8183600073ffffffffffffffffffffffffffffffffffffffff168273ffffffffffffffffffffffffffffffffffffffff1614158015611e37575060008151115b611e4057600080fd5b6000600360003373ffffffffffffffffffffffffffffffffffffffff1673ffffffffffffffffffffffffffffffffffffffff168152602001908152602001600020549050600360003373ffffffffffffffffffffffffffffffffffffffff1673ffffffffffffffffffffffffffffffffffffffff1681526020019081526020016000206000905560405180604001604052808781526020018673ffffffffffffffffffffffffffffffffffffffff16815250600460008381526020019081526020016000206000820151816000019080519060200190611f2192919061295d565b5060208201518160010160006101000a81548173ffffffffffffffffffffffffffffffffffffffff021916908373ffffffffffffffffffffffffffffffffffffffff16021790555090505080600360008773ffffffffffffffffffffffffffffffffffffffff1673ffffffffffffffffffffffffffffffffffffffff168152602001908152602001600020819055508473ffffffffffffffffffffffffffffffffffffffff16866040518082805190602001908083835b60208310611ffb5780518252602082019150602081019050602083039250611fd8565b6001836020036101000a03801982511681845116808217855250505050505090500191505060405180910390207f2faa3c2af7bd2b475175fb9f0039692c05247b48687f580a1b184c2864782486836040518082815260200191505060405180910390a3505050505050565b6000604051602001806000019050604051602081830303815290604052805190602001206000808881526020019081526020016000208686604051808383808284378083019250505092505050908152602001604051809103902060405160200180828054600181600116156101000203166002900480156121205780601f106120fe576101008083540402835291820191612120565b820191906000526020600020905b81548152906001019060200180831161210c575b505091505060405160208183030381529060405280519060200120146121ae576040517f08c379a00000000000000000000000000000000000000000000000000000000081526004018080602001828103825260148152602001807f4c6576656c20616c72656164792065786973747300000000000000000000000081525060200191505060405180910390fd5b82826000808981526020019081526020016000208787604051808383808284378083019250505092505050908152602001604051809103902091906121f49291906129dd565b5084846040518083838082843780830192505050925050506040518091039020867fe943e58ed27df7b246e1adf7477db8339daf4e1390bb6631d30c12ca8688d0af60405160405180910390a36001905095945050505050565b60008090508282604051602001808383808284378083019250505092505050604051602081830303815290604052805190602001206000808881526020019081526020016000208686604051808383808284378083019250505092505050908152602001604051809103902060405160200180828054600181600116156101000203166002900480156123185780601f106122f6576101008083540402835291820191612318565b820191906000526020600020905b815481529060010190602001808311612304575b5050915050604051602081830303815290604052805190602001201461238457828260008089815260200190815260200160002087876040518083838082843780830192505050925050509081526020016040518091039020919061237e9291906129dd565b50600190505b84846040518083838082843780830192505050925050506040518091039020867e912cb75f7067db1ccf583f994056072765d55a300fe09b6ef464bf20096d4a60405160405180910390a380905095945050505050565b6000811180156123ec575060075481105b61245e576040517f08c379a000000000000000000000000000000000000000000000000000000000815260040180806020018281038252600e8152602001807f696e76616c696420706f7374496400000000000000000000000000000000000081525060200191505060405180910390fd5b60006008600083815260200190815260200160002060010160009054906101000a900473ffffffffffffffffffffffffffffffffffffffff169050600073ffffffffffffffffffffffffffffffffffffffff168173ffffffffffffffffffffffffffffffffffffffff16141561253c576040517f08c379a00000000000000000000000000000000000000000000000000000000081526004018080602001828103825260138152602001807f706f737420646f6573206e6f742065786973740000000000000000000000000081525060200191505060405180910390fd5b3373ffffffffffffffffffffffffffffffffffffffff168173ffffffffffffffffffffffffffffffffffffffff1614156125de576040517f08c379a00000000000000000000000000000000000000000000000000000000081526004018080602001828103825260158152602001807f63616e6e6f7420636865657220796f757273656c66000000000000000000000081525060200191505060405180910390fd5b8073ffffffffffffffffffffffffffffffffffffffff166108fc349081150290604051600060405180830381858888f19350505050158015612624573d6000803e3d6000fd5b50346009600084815260200190815260200160002060008282540192505081905550600a60003373ffffffffffffffffffffffffffffffffffffffff1673ffffffffffffffffffffffffffffffffffffffff168152602001908152602001600020819080600181540180825580915050600190039060005260206000200160009091909190916101000a81548173ffffffffffffffffffffffffffffffffffffffff021916908373ffffffffffffffffffffffffffffffffffffffff160217905550817f6a84b0787332cd7e9710d3fed209c6a107f791e7fc5e731326d320639419f05660405160405180910390a25050565b6000604051806040016040528084848080601f016020809104026020016040519081016040528093929190818152602001838380828437600081840152601f19601f8201169050808301925050505050505081526020013373ffffffffffffffffffffffffffffffffffffffff1681525060086000600754815260200190815260200160002060008201518160000190805190602001906127b992919061295d565b5060208201518160010160006101000a81548173ffffffffffffffffffffffffffffffffffffffff021916908373ffffffffffffffffffffffffffffffffffffffff160217905550905050600b6000878152602001908152602001600020858560405180838380828437808301925050509250505090815260200160405180910390206007549080600181540180825580915050600190039060005260206000200160009091909190915055600754905060016007600082825401925050819055508060075414156128f3576040517f08c379a000000000000000000000000000000000000000000000000000000000815260040180806020018281038252601b8152602001807f657870656374656420696e6372656d656e74656420706f73744964000000000081525060200191505060405180910390fd5b85817f4697182172867f8e82d6b8b101116e17916928c13a4ca4a32cb823df93155cc260405160405180910390a380905095945050505050565b604051806040016040528060608152602001600073ffffffffffffffffffffffffffffffffffffffff1681525090565b828054600181600116156101000203166002900490600052602060002090601f016020900481019282601f1061299e57805160ff19168380011785556129cc565b828001600101855582156129cc579182015b828111156129cb5782518255916020019190600101906129b0565b5b5090506129d99190612a5d565b5090565b828054600181600116156101000203166002900490600052602060002090601f016020900481019282601f10612a1e57803560ff1916838001178555612a4c565b82800160010185558215612a4c579182015b82811115612a4b578235825591602001919060010190612a30565b5b509050612a599190612a5d565b5090565b612a7f91905b80821115612a7b576000816000905550600101612a63565b5090565b9056fea2646970667358221220966d221cd03b93e761521941c55d8ef110b01203ab454879cfacd68df5e29c4f64736f6c634300060000336080604052600160005534801561001557600080fd5b50610b54806100256000396000f3fe608060405234801561001057600080fd5b506004361061004c5760003560e01c8063507ffba51461005157806358975919146101205780636f77926b1461013e578063a484356314610235575b600080fd5b61010a6004803603602081101561006757600080fd5b810190808035906020019064010000000081111561008457600080fd5b82018360208201111561009657600080fd5b803590602001918460018302840111640100000000831117156100b857600080fd5b91908080601f016020809104026020016040519081016040528093929190818152602001838380828437600081840152601f19601f820116905080830192505050505050509192919290505050610310565b6040518082815260200191505060405180910390f35b610128610644565b6040518082815260200191505060405180910390f35b6101806004803603602081101561015457600080fd5b81019080803573ffffffffffffffffffffffffffffffffffffffff16906020019092919050505061064a565b60405180848152602001806020018373ffffffffffffffffffffffffffffffffffffffff1673ffffffffffffffffffffffffffffffffffffffff168152602001828103825284818151815260200191508051906020019080838360005b838110156101f85780820151818401526020810190506101dd565b50505050905090810190601f1680156102255780820380516001836020036101000a031916815260200191505b5094505050505060405180910390f35b61030e6004803603604081101561024b57600080fd5b810190808035906020019064010000000081111561026857600080fd5b82018360208201111561027a57600080fd5b8035906020019184600183028401116401000000008311171561029c57600080fd5b91908080601f016020809104026020016040519081016040528093929190818152602001838380828437600081840152601f19601f820116905080830192505050505050509192919290803573ffffffffffffffffffffffffffffffffffffffff169060200190929190505050610753565b005b6000336000600160008373ffffffffffffffffffffffffffffffffffffffff1673ffffffffffffffffffffffffffffffffffffffff16815260200190815260200160002054146103c8576040517f08c379a00000000000000000000000000000000000000000000000000000000081526004018080602001828103825260138152602001807f5573657220616c7265616479206578697374730000000000000000000000000081525060200191505060405180910390fd5b3383600073ffffffffffffffffffffffffffffffffffffffff168273ffffffffffffffffffffffffffffffffffffffff1614158015610408575060008151115b61041157600080fd5b60405180604001604052808681526020013373ffffffffffffffffffffffffffffffffffffffff168152506002600080548152602001908152602001600020600082015181600001908051906020019061046c929190610a79565b5060208201518160010160006101000a81548173ffffffffffffffffffffffffffffffffffffffff021916908373ffffffffffffffffffffffffffffffffffffffff160217905550905050600054600160003373ffffffffffffffffffffffffffffffffffffffff1673ffffffffffffffffffffffffffffffffffffffff1681526020019081526020016000208190555060005493506001600080828254019250508190555083600054141561058a576040517f08c379a000000000000000000000000000000000000000000000000000000000815260040180806020018281038252601b8152602001807f657870656374656420696e6372656d656e74656420757365724964000000000081525060200191505060405180910390fd5b3373ffffffffffffffffffffffffffffffffffffffff16856040518082805190602001908083835b602083106105d557805182526020820191506020810190506020830392506105b2565b6001836020036101000a03801982511681845116808217855250505050505090500191505060405180910390207f1c81d7053f5e6f875e0d7b584d3354071899b7dc927e6d7b48b58caa90cf3de8866040518082815260200191505060405180910390a3839350505050919050565b60005481565b600060606000600160008573ffffffffffffffffffffffffffffffffffffffff1673ffffffffffffffffffffffffffffffffffffffff168152602001908152602001600020549250600260008481526020019081526020016000206000018054600181600116156101000203166002900480601f01602080910402602001604051908101604052809291908181526020018280546001816001161561010002031660029004801561073c5780601f106107115761010080835404028352916020019161073c565b820191906000526020600020905b81548152906001019060200180831161071f57829003601f168201915b505050505091508282859250925092509193909250565b806000600160008373ffffffffffffffffffffffffffffffffffffffff1673ffffffffffffffffffffffffffffffffffffffff1681526020019081526020016000205414610809576040517f08c379a00000000000000000000000000000000000000000000000000000000081526004018080602001828103825260138152602001807f5573657220616c7265616479206578697374730000000000000000000000000081525060200191505060405180910390fd5b8183600073ffffffffffffffffffffffffffffffffffffffff168273ffffffffffffffffffffffffffffffffffffffff1614158015610849575060008151115b61085257600080fd5b6000600160003373ffffffffffffffffffffffffffffffffffffffff1673ffffffffffffffffffffffffffffffffffffffff168152602001908152602001600020549050600160003373ffffffffffffffffffffffffffffffffffffffff1673ffffffffffffffffffffffffffffffffffffffff1681526020019081526020016000206000905560405180604001604052808781526020018673ffffffffffffffffffffffffffffffffffffffff16815250600260008381526020019081526020016000206000820151816000019080519060200190610933929190610a79565b5060208201518160010160006101000a81548173ffffffffffffffffffffffffffffffffffffffff021916908373ffffffffffffffffffffffffffffffffffffffff16021790555090505080600160008773ffffffffffffffffffffffffffffffffffffffff1673ffffffffffffffffffffffffffffffffffffffff168152602001908152602001600020819055508473ffffffffffffffffffffffffffffffffffffffff16866040518082805190602001908083835b60208310610a0d57805182526020820191506020810190506020830392506109ea565b6001836020036101000a03801982511681845116808217855250505050505090500191505060405180910390207f2faa3c2af7bd2b475175fb9f0039692c05247b48687f580a1b184c2864782486836040518082815260200191505060405180910390a3505050505050565b828054600181600116156101000203166002900490600052602060002090601f016020900481019282601f10610aba57805160ff1916838001178555610ae8565b82800160010185558215610ae8579182015b82811115610ae7578251825591602001919060010190610acc565b5b509050610af59190610af9565b5090565b610b1b91905b80821115610b17576000816000905550600101610aff565b5090565b9056fea264697066735822122037ad27066c1d578611db4b337b997e25871ce91a7a4c05f3532267e7ec85414864736f6c63430006000033608060405234801561001057600080fd5b50610df6806100206000396000f3fe608060405234801561001057600080fd5b50600436106100575760003560e01c80635eadbadc1461005c578063654f9c4f1461019a57806374cd373114610281578063e8174a8114610326578063eba1520f14610416575b600080fd5b61011f6004803603604081101561007257600080fd5b81019080803590602001909291908035906020019064010000000081111561009957600080fd5b8201836020820111156100ab57600080fd5b803590602001918460018302840111640100000000831117156100cd57600080fd5b91908080601f016020809104026020016040519081016040528093929190818152602001838380828437600081840152601f19601f820116905080830192505050505050509192919290505050610506565b6040518080602001828103825283818151815260200191508051906020019080838360005b8381101561015f578082015181840152602081019050610144565b50505050905090810190601f16801561018c5780820380516001836020036101000a031916815260200191505b509250505060405180910390f35b610267600480360360608110156101b057600080fd5b810190808035906020019092919080359060200190929190803590602001906401000000008111156101e157600080fd5b8201836020820111156101f357600080fd5b8035906020019184600183028401116401000000008311171561021557600080fd5b91908080601f016020809104026020016040519081016040528093929190818152602001838380828437600081840152601f19601f820116905080830192505050505050509192919290505050610622565b604051808215151515815260200191505060405180910390f35b61030c6004803603606081101561029757600080fd5b810190808035906020019092919080359060200190929190803590602001906401000000008111156102c857600080fd5b8201836020820111156102da57600080fd5b803590602001918460018302840111640100000000831117156102fc57600080fd5b909192939192939050505061076a565b604051808215151515815260200191505060405180910390f35b6103fc6004803603606081101561033c57600080fd5b81019080803590602001909291908035906020019064010000000081111561036357600080fd5b82018360208201111561037557600080fd5b8035906020019184600183028401116401000000008311171561039757600080fd5b9091929391929390803590602001906401000000008111156103b857600080fd5b8201836020820111156103ca57600080fd5b803590602001918460018302840111640100000000831117156103ec57600080fd5b90919293919293905050506109a7565b604051808215151515815260200191505060405180910390f35b6104ec6004803603606081101561042c57600080fd5b81019080803590602001909291908035906020019064010000000081111561045357600080fd5b82018360208201111561046557600080fd5b8035906020019184600183028401116401000000008311171561048757600080fd5b9091929391929390803590602001906401000000008111156104a857600080fd5b8201836020820111156104ba57600080fd5b803590602001918460018302840111640100000000831117156104dc57600080fd5b9091929391929390505050610b8e565b604051808215151515815260200191505060405180910390f35b6060600080848152602001908152602001600020826040518082805190602001908083835b6020831061054e578051825260208201915060208101905060208303925061052b565b6001836020036101000a03801982511681845116808217855250505050505090500191505090815260200160405180910390208054600181600116156101000203166002900480601f0160208091040260200160405190810160405280929190818152602001828054600181600116156101000203166002900480156106155780601f106105ea57610100808354040283529160200191610615565b820191906000526020600020905b8154815290600101906020018083116105f857829003601f168201915b5050505050905092915050565b600080905060008090505b60016000868152602001908152602001600020836040518082805190602001908083835b602083106106745780518252602082019150602081019050602083039250610651565b6001836020036101000a03801982511681845116808217855250505050505090500191505090815260200160405180910390208054905081101561075f578360016000878152602001908152602001600020846040518082805190602001908083835b602083106106fa57805182526020820191506020810190506020830392506106d7565b6001836020036101000a0380198251168184511680821785525050505050509050019150509081526020016040518091039020828154811061073857fe5b90600052602060002001541415610752576001915061075f565b808060010191505061062d565b508090509392505050565b60008483838080601f016020809104026020016040519081016040528093929190818152602001838380828437600081840152601f19601f8201169050808301925050505050505060405160200180600001905060405160208183030381529060405280519060200120600080848152602001908152602001600020826040518082805190602001908083835b6020831061081a57805182526020820191506020810190506020830392506107f7565b6001836020036101000a038019825116818451168082178552505050505050905001915050908152602001604051809103902060405160200180828054600181600116156101000203166002900480156108ab5780601f106108895761010080835404028352918201916108ab565b820191906000526020600020905b815481529060010190602001808311610897575b505091505060405160208183030381529060405280519060200120141561093a576040517f08c379a00000000000000000000000000000000000000000000000000000000081526004018080602001828103825260148152602001807f4c6576656c20646f65736e27742065786973747300000000000000000000000081525060200191505060405180910390fd5b6001600088815260200190815260200160002085856040518083838082843780830192505050925050509081526020016040518091039020869080600181540180825580915050600190039060005260206000200160009091909190915055600192505050949350505050565b600060405160200180600001905060405160208183030381529060405280519060200120600080888152602001908152602001600020868660405180838380828437808301925050509250505090815260200160405180910390206040516020018082805460018160011615610100020316600290048015610a605780601f10610a3e576101008083540402835291820191610a60565b820191906000526020600020905b815481529060010190602001808311610a4c575b50509150506040516020818303038152906040528051906020012014610aee576040517f08c379a00000000000000000000000000000000000000000000000000000000081526004018080602001828103825260148152602001807f4c6576656c20616c72656164792065786973747300000000000000000000000081525060200191505060405180910390fd5b8282600080898152602001908152602001600020878760405180838380828437808301925050509250505090815260200160405180910390209190610b34929190610d1b565b5084846040518083838082843780830192505050925050506040518091039020867fe943e58ed27df7b246e1adf7477db8339daf4e1390bb6631d30c12ca8688d0af60405160405180910390a36001905095945050505050565b6000809050828260405160200180838380828437808301925050509250505060405160208183030381529060405280519060200120600080888152602001908152602001600020868660405180838380828437808301925050509250505090815260200160405180910390206040516020018082805460018160011615610100020316600290048015610c585780601f10610c36576101008083540402835291820191610c58565b820191906000526020600020905b815481529060010190602001808311610c44575b50509150506040516020818303038152906040528051906020012014610cc4578282600080898152602001908152602001600020878760405180838380828437808301925050509250505090815260200160405180910390209190610cbe929190610d1b565b50600190505b84846040518083838082843780830192505050925050506040518091039020867e912cb75f7067db1ccf583f994056072765d55a300fe09b6ef464bf20096d4a60405160405180910390a380905095945050505050565b828054600181600116156101000203166002900490600052602060002090601f016020900481019282601f10610d5c57803560ff1916838001178555610d8a565b82800160010185558215610d8a579182015b82811115610d89578235825591602001919060010190610d6e565b5b509050610d979190610d9b565b5090565b610dbd91905b80821115610db9576000816000905550600101610da1565b5090565b9056fea2646970667358221220146d7d54bfd2d88c1d11a2d203d26ecb1820d333031abc449d5bf59a218ee63c64736f6c63430006000033",
  "source": "// SPDX-License-Identifier: MIT\npragma solidity ^0.6.0;\n\nimport \"./Social.sol\";\nimport \"./User.sol\";\n\ncontract PostContract is Social, User {\n\n    struct PostMultihash {\t\n        string ipfsHash;\t\n        address owner;\n    }\n\n    Social private social; \n    User private user; \n\n    uint public postId = 1;\n\n    // Mapping of postId to Post\n    mapping(uint => PostMultihash) private postMetadataMultihashes;\n\n    // Mapping of postId to total cheered amount\n    mapping(uint => uint) private postCheeredAmount;\n\n    // Mapping of users with their cheered creators\n    mapping(address => address[]) private userCheeredCreators;\n\n    // Mapping of userId to their level wise posts\n    mapping(uint => mapping(string => uint[])) private userLevelPosts;\n\n\n    // Events\n    event PostCreated(uint indexed postId, uint indexed ownerId);\n    event Cheered(uint indexed postId);\n\n    constructor() public{\n        user = new User();\n        social = new Social();\n    }\n\n    // View the post metadata for a specific postId\n    function getPost(uint _postId) view public returns (  \n        string memory ipfsHash,\n        address owner){\n        PostMultihash memory postMultihash = postMetadataMultihashes[_postId];\n        return (\n            postMultihash.ipfsHash,\n            postMultihash.owner\n        );\n    }\n\n    // Add a post id to a user's level wise posts\n    function addPost(uint _postOwnerId, string calldata _level, string calldata _hash) external returns (uint _postId){\n        postMetadataMultihashes[postId] = PostMultihash({\n            ipfsHash: _hash,\n            owner: msg.sender\n        });\n        userLevelPosts[_postOwnerId][_level].push(postId);\n\n        _postId = postId;\n        postId += 1;\n        require(postId != _postId, \"expected incremented postId\");\n\n        emit PostCreated(_postId, _postOwnerId);\n        return _postId;\n    }\n\n    // Cheer a creator on a post\n    function cheerCreator(uint _postId) public payable{\n        require(_postId > 0 && _postId < postId, \"invalid postId\");\n        \n        address _owner = postMetadataMultihashes[_postId].owner;\n        require(_owner != address(0x0), \"post does not exist\");\n        require(_owner != msg.sender, \"cannot cheer yourself\");\n\n        payable(_owner).transfer(msg.value);\n        postCheeredAmount[_postId] += msg.value;\n        userCheeredCreators[msg.sender].push(_owner);\n\n        emit Cheered(_postId);\n    }\n\n    // Get total cheers of a post\n    function getCheeredAmount(uint _postId) view public returns (uint _cheeredAmount){\n        require(_postId > 0 && _postId < postId, \"invalid postId\");\n        return postCheeredAmount[_postId];\n    }\n\n    // Get total cheers of a user\n    function getUserCheeredCreators(address _user) view public returns (address[] memory){\n        return userCheeredCreators[_user];\n    }\n\n    // Get posts of a user for a specific level\n    function getPostsForUser(uint _ownerId, uint _userId, string memory _level) view public returns(uint[] memory){\n        require(_userId > 0, \"invalid userId\");\n\n        // require(social.isSubscribed(_ownerId, _userId, _level), \"user is not subscribed to the level\");\n\n        uint256[] memory _postIds = new uint256[](10);\n        uint256 _index = 0;\n\n        uint256[] memory _userPosts = userLevelPosts[_ownerId][_level];\n        uint postIdsLength = _userPosts.length;\n\n        for (uint j=0; j < postIdsLength; j++) {\n            _postIds[_index] = _userPosts[j];\n            _index += 1;\n        }\n\n        return _postIds;  \n    }\n\n    // Get public posts\n    function getPublicPosts(uint[] memory _ownerIds) view public returns (uint[] memory){\n        uint256[] memory _postIds = new uint256[](10);\n        uint256 _index = 0;\n\n        uint idsLength = _ownerIds.length;\n\n        for(uint i = 0; i < idsLength; i++){\n            uint256[] memory _userPosts = userLevelPosts[_ownerIds[i]][\"public\"];\n            uint postIdsLength = _userPosts.length;\n\n            for (uint j=0; j < postIdsLength; j++) {\n                _postIds[_index] = _userPosts[j];\n                _index += 1;\n            }\n        }\n        return _postIds;\n    }\n}",
  "sourcePath": "/Users/rahulbansal/Desktop/Popper/contracts/Post.sol",
  "compiler": {
    "name": "solc",
    "version": "0.6.0+commit.26b70077.Emscripten.clang"
  },
  "schemaVersion": "3.4.6",
  "updatedAt": "2022-05-22T11:59:27.733Z",
  "networkType": "ethereum",
  "devdoc": {
    "methods": {}
  },
  "userdoc": {
    "methods": {}
  }
}