{
  "contractName": "PostContract",
  "abi": [
    {
      "anonymous": false,
      "inputs": [
        {
          "indexed": false,
          "internalType": "uint256",
          "name": "postId",
          "type": "uint256"
        },
        {
          "indexed": false,
          "internalType": "uint256",
          "name": "ownerId",
          "type": "uint256"
        }
      ],
      "name": "Cheered",
      "type": "event"
    },
    {
      "anonymous": false,
      "inputs": [
        {
          "indexed": false,
          "internalType": "uint256",
          "name": "postId",
          "type": "uint256"
        },
        {
          "indexed": false,
          "internalType": "uint256",
          "name": "ownerId",
          "type": "uint256"
        }
      ],
      "name": "PostCreated",
      "type": "event"
    },
    {
      "inputs": [
        {
          "internalType": "uint256",
          "name": "_postId",
          "type": "uint256"
        }
      ],
      "name": "getPost",
      "outputs": [
        {
          "internalType": "bytes32",
          "name": "multihashDigest",
          "type": "bytes32"
        },
        {
          "internalType": "uint8",
          "name": "multihashHashFn",
          "type": "uint8"
        },
        {
          "internalType": "uint8",
          "name": "multihashSize",
          "type": "uint8"
        },
        {
          "internalType": "address",
          "name": "owner",
          "type": "address"
        }
      ],
      "stateMutability": "view",
      "type": "function",
      "constant": true
    },
    {
      "inputs": [
        {
          "internalType": "uint256",
          "name": "_postOwnerId",
          "type": "uint256"
        },
        {
          "internalType": "bytes32",
          "name": "_multihashDigest",
          "type": "bytes32"
        },
        {
          "internalType": "uint8",
          "name": "_multihashHashFn",
          "type": "uint8"
        },
        {
          "internalType": "uint8",
          "name": "_multihashSize",
          "type": "uint8"
        }
      ],
      "name": "addPost",
      "outputs": [
        {
          "internalType": "uint256",
          "name": "_postId",
          "type": "uint256"
        }
      ],
      "stateMutability": "nonpayable",
      "type": "function"
    },
    {
      "inputs": [
        {
          "internalType": "uint256",
          "name": "_postId",
          "type": "uint256"
        }
      ],
      "name": "cheerCreator",
      "outputs": [],
      "stateMutability": "payable",
      "type": "function",
      "payable": true
    }
  ],
  "bytecode": "0x6080604052600160005534801561001557600080fd5b50610606806100256000396000f3fe6080604052600436106100345760003560e01c806340731c24146100395780638a3f755b146100d5578063f061f3ae14610148575b600080fd5b34801561004557600080fd5b506100726004803603602081101561005c57600080fd5b8101908080359060200190929190505050610176565b604051808581526020018460ff1660ff1681526020018360ff1660ff1681526020018273ffffffffffffffffffffffffffffffffffffffff1673ffffffffffffffffffffffffffffffffffffffff16815260200194505050505060405180910390f35b3480156100e157600080fd5b50610132600480360360808110156100f857600080fd5b810190808035906020019092919080359060200190929190803560ff169060200190929190803560ff169060200190929190505050610262565b6040518082815260200191505060405180910390f35b6101746004803603602081101561015e57600080fd5b810190808035906020019092919050505061045e565b005b600080600080610184610589565b60026000878152602001908152602001600020604051806080016040529081600082015481526020016001820160009054906101000a900460ff1660ff1660ff1681526020016001820160019054906101000a900460ff1660ff1660ff1681526020016001820160029054906101000a900473ffffffffffffffffffffffffffffffffffffffff1673ffffffffffffffffffffffffffffffffffffffff1673ffffffffffffffffffffffffffffffffffffffff1681525050905080600001518160200151826040015183606001519450945094509450509193509193565b600060016000868152602001908152602001600020600054908060018154018082558091505060019003906000526020600020016000909190919091505560405180608001604052808581526020018460ff1681526020018360ff1681526020013373ffffffffffffffffffffffffffffffffffffffff1681525060026000805481526020019081526020016000206000820151816000015560208201518160010160006101000a81548160ff021916908360ff16021790555060408201518160010160016101000a81548160ff021916908360ff16021790555060608201518160010160026101000a81548173ffffffffffffffffffffffffffffffffffffffff021916908373ffffffffffffffffffffffffffffffffffffffff160217905550905050600054905060016000808282540192505081905550806000541415610414576040517f08c379a000000000000000000000000000000000000000000000000000000000815260040180806020018281038252601b8152602001807f657870656374656420696e6372656d656e74656420706f73744964000000000081525060200191505060405180910390fd5b7f4697182172867f8e82d6b8b101116e17916928c13a4ca4a32cb823df93155cc28186604051808381526020018281526020019250505060405180910390a1809050949350505050565b60008111801561047057506000548111155b6104e2576040517f08c379a000000000000000000000000000000000000000000000000000000000815260040180806020018281038252600e8152602001807f696e76616c696420706f7374496400000000000000000000000000000000000081525060200191505060405180910390fd5b60006002600083815260200190815260200160002060010160029054906101000a900473ffffffffffffffffffffffffffffffffffffffff1690508073ffffffffffffffffffffffffffffffffffffffff166108fc349081150290604051600060405180830381858888f19350505050158015610563573d6000803e3d6000fd5b503460036000848152602001908152602001600020600082825401925050819055505050565b604051806080016040528060008019168152602001600060ff168152602001600060ff168152602001600073ffffffffffffffffffffffffffffffffffffffff168152509056fea26469706673582212204550f48bceb9c0b57d81b963f983b15ab85c5f5cad6df0e8c31f3c93132a758064736f6c63430006000033",
  "source": "pragma solidity ^0.6.0;\n\ncontract PostContract{\n\n    struct PostMultihash {\t\n        bytes32 digest;\t\n        uint8 hashFn;\t\n        uint8 size;\t\n        address owner;\n    }\n    uint postId = 1;\n\n    // Mapping of userId to array of post ids\n    mapping(uint => uint[]) private postOwnerIds;\n\n    // Mapping of postId to Post\n    mapping(uint => PostMultihash) private postMetadataMultihashes;\n\n    // Mapping of postId to total cheered amount\n    mapping(uint => uint) private postCheeredAmount;\n\n\n    // Events\n    event PostCreated(uint postId, uint ownerId);\n    event Cheered(uint postId, uint ownerId);\n\n\n    // View the post metadata for a specific postId\n    function getPost(uint _postId) view public returns (  \n        bytes32 multihashDigest,\n        uint8 multihashHashFn,\n        uint8 multihashSize,\n        address owner){\n        PostMultihash memory postMultihash = postMetadataMultihashes[_postId];\n        return (\n            postMultihash.digest,\n            postMultihash.hashFn,\n            postMultihash.size,\n            postMultihash.owner\n        );\n    }\n\n    // Create a post\n    function addPost(uint _postOwnerId, bytes32 _multihashDigest, uint8 _multihashHashFn, uint8 _multihashSize) external returns (uint _postId){\n        postOwnerIds[_postOwnerId].push(postId);\n        postMetadataMultihashes[postId] = PostMultihash({\n            digest: _multihashDigest,\n            hashFn: _multihashHashFn,\n            size: _multihashSize,\n            owner: msg.sender\n        });\n        _postId = postId;\n        postId += 1;\n        require(postId != _postId, \"expected incremented postId\");\n\n        emit PostCreated(_postId, _postOwnerId);\n        return _postId;\n    }\n\n    // Cheer a creator on a post\n    function cheerCreator(uint _postId) public payable{\n        require(_postId > 0 && _postId <= postId, \"invalid postId\");\n        address _owner = postMetadataMultihashes[_postId].owner;\n        payable(_owner).transfer(msg.value);\n        postCheeredAmount[_postId] += msg.value;\n    }\n}",
  "sourcePath": "/Users/rahulbansal/Desktop/Peer-to-Peer-Donation-dApp/contracts/Post.sol",
  "compiler": {
    "name": "solc",
    "version": "0.6.0+commit.26b70077.Emscripten.clang"
  },
  "schemaVersion": "3.4.3",
  "updatedAt": "2022-05-09T19:37:39.743Z",
  "networkType": "ethereum",
  "devdoc": {
    "methods": {}
  },
  "userdoc": {
    "methods": {}
  }
}