{
  "contractName": "PostContract",
  "abi": [
    {
      "anonymous": false,
      "inputs": [
        {
          "indexed": false,
          "internalType": "uint256",
          "name": "postId",
          "type": "uint256"
        },
        {
          "indexed": false,
          "internalType": "uint256",
          "name": "ownerId",
          "type": "uint256"
        }
      ],
      "name": "Cheered",
      "type": "event"
    },
    {
      "anonymous": false,
      "inputs": [
        {
          "indexed": false,
          "internalType": "uint256",
          "name": "postId",
          "type": "uint256"
        },
        {
          "indexed": false,
          "internalType": "uint256",
          "name": "ownerId",
          "type": "uint256"
        }
      ],
      "name": "PostCreated",
      "type": "event"
    },
    {
      "inputs": [],
      "name": "postId",
      "outputs": [
        {
          "internalType": "uint256",
          "name": "",
          "type": "uint256"
        }
      ],
      "stateMutability": "view",
      "type": "function"
    },
    {
      "inputs": [
        {
          "internalType": "uint256",
          "name": "_postId",
          "type": "uint256"
        }
      ],
      "name": "getPost",
      "outputs": [
        {
          "internalType": "string",
          "name": "multihashDigest",
          "type": "string"
        },
        {
          "internalType": "uint8",
          "name": "multihashHashFn",
          "type": "uint8"
        },
        {
          "internalType": "uint8",
          "name": "multihashSize",
          "type": "uint8"
        },
        {
          "internalType": "address",
          "name": "owner",
          "type": "address"
        }
      ],
      "stateMutability": "view",
      "type": "function"
    },
    {
      "inputs": [
        {
          "internalType": "uint256",
          "name": "_postOwnerId",
          "type": "uint256"
        },
        {
          "internalType": "string",
          "name": "_multihashDigest",
          "type": "string"
        },
        {
          "internalType": "uint8",
          "name": "_multihashHashFn",
          "type": "uint8"
        },
        {
          "internalType": "uint8",
          "name": "_multihashSize",
          "type": "uint8"
        }
      ],
      "name": "addPost",
      "outputs": [
        {
          "internalType": "uint256",
          "name": "_postId",
          "type": "uint256"
        }
      ],
      "stateMutability": "nonpayable",
      "type": "function"
    },
    {
      "inputs": [
        {
          "internalType": "uint256",
          "name": "_postId",
          "type": "uint256"
        }
      ],
      "name": "cheerCreator",
      "outputs": [],
      "stateMutability": "payable",
      "type": "function"
    }
  ],
  "bytecode": "0x6080604052600160005534801561001557600080fd5b506109cc806100256000396000f3fe60806040526004361061003f5760003560e01c806340731c241461004457806360a0ecda14610145578063bb2112ea14610170578063f061f3ae1461022e575b600080fd5b34801561005057600080fd5b5061007d6004803603602081101561006757600080fd5b810190808035906020019092919050505061025c565b60405180806020018560ff1660ff1681526020018460ff1660ff1681526020018373ffffffffffffffffffffffffffffffffffffffff1673ffffffffffffffffffffffffffffffffffffffff168152602001828103825286818151815260200191508051906020019080838360005b838110156101075780820151818401526020810190506100ec565b50505050905090810190601f1680156101345780820380516001836020036101000a031916815260200191505b509550505050505060405180910390f35b34801561015157600080fd5b5061015a6103e4565b6040518082815260200191505060405180910390f35b34801561017c57600080fd5b506102186004803603608081101561019357600080fd5b8101908080359060200190929190803590602001906401000000008111156101ba57600080fd5b8201836020820111156101cc57600080fd5b803590602001918460018302840111640100000000831117156101ee57600080fd5b9091929391929390803560ff169060200190929190803560ff1690602001909291905050506103ea565b6040518082815260200191505060405180910390f35b61025a6004803603602081101561024457600080fd5b810190808035906020019092919050505061063e565b005b6060600080600061026b6108ad565b60026000878152602001908152602001600020604051806080016040529081600082018054600181600116156101000203166002900480601f0160208091040260200160405190810160405280929190818152602001828054600181600116156101000203166002900480156103225780601f106102f757610100808354040283529160200191610322565b820191906000526020600020905b81548152906001019060200180831161030557829003601f168201915b505050505081526020016001820160009054906101000a900460ff1660ff1660ff1681526020016001820160019054906101000a900460ff1660ff1660ff1681526020016001820160029054906101000a900473ffffffffffffffffffffffffffffffffffffffff1673ffffffffffffffffffffffffffffffffffffffff1673ffffffffffffffffffffffffffffffffffffffff1681525050905080600001518160200151826040015183606001518393509450945094509450509193509193565b60005481565b6000604051806080016040528086868080601f016020809104026020016040519081016040528093929190818152602001838380828437600081840152601f19601f8201169050808301925050505050505081526020018460ff1681526020018360ff1681526020013373ffffffffffffffffffffffffffffffffffffffff168152506002600080548152602001908152602001600020600082015181600001908051906020019061049d9291906108f1565b5060208201518160010160006101000a81548160ff021916908360ff16021790555060408201518160010160016101000a81548160ff021916908360ff16021790555060608201518160010160026101000a81548173ffffffffffffffffffffffffffffffffffffffff021916908373ffffffffffffffffffffffffffffffffffffffff1602179055509050506001600087815260200190815260200160002060005490806001815401808255809150506001900390600052602060002001600090919091909150556000549050600160008082825401925050819055508060005414156105f3576040517f08c379a000000000000000000000000000000000000000000000000000000000815260040180806020018281038252601b8152602001807f657870656374656420696e6372656d656e74656420706f73744964000000000081525060200191505060405180910390fd5b7f4697182172867f8e82d6b8b101116e17916928c13a4ca4a32cb823df93155cc28187604051808381526020018281526020019250505060405180910390a180905095945050505050565b60008111801561064f575060005481105b6106c1576040517f08c379a000000000000000000000000000000000000000000000000000000000815260040180806020018281038252600e8152602001807f696e76616c696420706f7374496400000000000000000000000000000000000081525060200191505060405180910390fd5b60006002600083815260200190815260200160002060010160029054906101000a900473ffffffffffffffffffffffffffffffffffffffff169050600073ffffffffffffffffffffffffffffffffffffffff168173ffffffffffffffffffffffffffffffffffffffff16141561079f576040517f08c379a00000000000000000000000000000000000000000000000000000000081526004018080602001828103825260138152602001807f706f737420646f6573206e6f742065786973740000000000000000000000000081525060200191505060405180910390fd5b3373ffffffffffffffffffffffffffffffffffffffff168173ffffffffffffffffffffffffffffffffffffffff161415610841576040517f08c379a00000000000000000000000000000000000000000000000000000000081526004018080602001828103825260158152602001807f63616e6e6f7420636865657220796f757273656c66000000000000000000000081525060200191505060405180910390fd5b8073ffffffffffffffffffffffffffffffffffffffff166108fc349081150290604051600060405180830381858888f19350505050158015610887573d6000803e3d6000fd5b503460036000848152602001908152602001600020600082825401925050819055505050565b604051806080016040528060608152602001600060ff168152602001600060ff168152602001600073ffffffffffffffffffffffffffffffffffffffff1681525090565b828054600181600116156101000203166002900490600052602060002090601f016020900481019282601f1061093257805160ff1916838001178555610960565b82800160010185558215610960579182015b8281111561095f578251825591602001919060010190610944565b5b50905061096d9190610971565b5090565b61099391905b8082111561098f576000816000905550600101610977565b5090565b9056fea2646970667358221220e29e243dde3892b5c1852b2334debfc62652804d958191cac38337aef74c59c964736f6c63430006000033",
  "source": "// SPDX-License-Identifier: MIT\npragma solidity ^0.6.0;\n\ncontract PostContract{\n\n    struct PostMultihash {\t\n        string digest;\t\n        uint8 hashFn;\t\n        uint8 size;\t\n        address owner;\n    }\n    uint public postId = 1;\n\n    // Mapping of userId to array of post ids\n    mapping(uint => uint[]) private postOwnerIds;\n\n    // Mapping of postId to Post\n    mapping(uint => PostMultihash) private postMetadataMultihashes;\n\n    // Mapping of postId to total cheered amount\n    mapping(uint => uint) private postCheeredAmount;\n\n\n    // Events\n    event PostCreated(uint postId, uint ownerId);\n    event Cheered(uint postId, uint ownerId);\n\n\n    // View the post metadata for a specific postId\n    function getPost(uint _postId) view public returns (  \n        string memory multihashDigest,\n        uint8 multihashHashFn,\n        uint8 multihashSize,\n        address owner){\n        PostMultihash memory postMultihash = postMetadataMultihashes[_postId];\n        return (\n            postMultihash.digest,\n            postMultihash.hashFn,\n            postMultihash.size,\n            postMultihash.owner\n        );\n    }\n\n    // Create a post\n    function addPost(uint _postOwnerId, string calldata _multihashDigest, uint8 _multihashHashFn, uint8 _multihashSize) external returns (uint _postId){\n        postMetadataMultihashes[postId] = PostMultihash({\n            digest: _multihashDigest,\n            hashFn: _multihashHashFn,\n            size: _multihashSize,\n            owner: msg.sender\n        });\n        postOwnerIds[_postOwnerId].push(postId);\n        _postId = postId;\n        postId += 1;\n        require(postId != _postId, \"expected incremented postId\");\n\n        emit PostCreated(_postId, _postOwnerId);\n        return _postId;\n    }\n\n    // Cheer a creator on a post\n    function cheerCreator(uint _postId) public payable{\n        require(_postId > 0 && _postId < postId, \"invalid postId\");\n        \n        address _owner = postMetadataMultihashes[_postId].owner;\n        require(_owner != address(0x0), \"post does not exist\");\n        require(_owner != msg.sender, \"cannot cheer yourself\");\n\n        payable(_owner).transfer(msg.value);\n        postCheeredAmount[_postId] += msg.value;\n    }\n}",
  "sourcePath": "/Users/rahulbansal/Desktop/Peer-to-Peer-Donation-dApp/contracts/Post.sol",
  "compiler": {
    "name": "solc",
    "version": "0.6.0+commit.26b70077.Emscripten.clang"
  },
  "schemaVersion": "3.4.3",
  "updatedAt": "2022-05-10T19:40:57.425Z",
  "devdoc": {
    "methods": {}
  },
  "userdoc": {
    "methods": {}
  }
}