{
  "contractName": "PostContract",
  "abi": [
    {
      "anonymous": false,
      "inputs": [
        {
          "indexed": false,
          "internalType": "uint256",
          "name": "postId",
          "type": "uint256"
        }
      ],
      "name": "Cheered",
      "type": "event"
    },
    {
      "anonymous": false,
      "inputs": [
        {
          "indexed": false,
          "internalType": "uint256",
          "name": "postId",
          "type": "uint256"
        },
        {
          "indexed": false,
          "internalType": "uint256",
          "name": "ownerId",
          "type": "uint256"
        }
      ],
      "name": "PostCreated",
      "type": "event"
    },
    {
      "inputs": [],
      "name": "postId",
      "outputs": [
        {
          "internalType": "uint256",
          "name": "",
          "type": "uint256"
        }
      ],
      "stateMutability": "view",
      "type": "function",
      "constant": true
    },
    {
      "inputs": [
        {
          "internalType": "uint256",
          "name": "_postId",
          "type": "uint256"
        }
      ],
      "name": "getPost",
      "outputs": [
        {
          "internalType": "string",
          "name": "ipfsHash",
          "type": "string"
        },
        {
          "internalType": "address",
          "name": "owner",
          "type": "address"
        }
      ],
      "stateMutability": "view",
      "type": "function",
      "constant": true
    },
    {
      "inputs": [
        {
          "internalType": "uint256",
          "name": "_postOwnerId",
          "type": "uint256"
        },
        {
          "internalType": "string",
          "name": "_hash",
          "type": "string"
        }
      ],
      "name": "addPost",
      "outputs": [
        {
          "internalType": "uint256",
          "name": "_postId",
          "type": "uint256"
        }
      ],
      "stateMutability": "nonpayable",
      "type": "function"
    },
    {
      "inputs": [
        {
          "internalType": "uint256",
          "name": "_postId",
          "type": "uint256"
        }
      ],
      "name": "cheerCreator",
      "outputs": [],
      "stateMutability": "payable",
      "type": "function",
      "payable": true
    },
    {
      "inputs": [
        {
          "internalType": "uint256",
          "name": "_postId",
          "type": "uint256"
        }
      ],
      "name": "getCheeredAmount",
      "outputs": [
        {
          "internalType": "uint256",
          "name": "_cheeredAmount",
          "type": "uint256"
        }
      ],
      "stateMutability": "view",
      "type": "function",
      "constant": true
    },
    {
      "inputs": [
        {
          "internalType": "uint256",
          "name": "_userId",
          "type": "uint256"
        },
        {
          "internalType": "string",
          "name": "_level",
          "type": "string"
        },
        {
          "internalType": "uint256",
          "name": "_postId",
          "type": "uint256"
        }
      ],
      "name": "addPostToUserLevelPosts",
      "outputs": [],
      "stateMutability": "nonpayable",
      "type": "function"
    },
    {
      "inputs": [
        {
          "internalType": "uint256",
          "name": "_userId",
          "type": "uint256"
        },
        {
          "internalType": "string",
          "name": "_level",
          "type": "string"
        }
      ],
      "name": "getPostsForUser",
      "outputs": [
        {
          "internalType": "uint256[]",
          "name": "_posts",
          "type": "uint256[]"
        }
      ],
      "stateMutability": "view",
      "type": "function",
      "constant": true
    }
  ],
  "bytecode": "0x6080604052600160005534801561001557600080fd5b50610e9f806100256000396000f3fe6080604052600436106100705760003560e01c806360a0ecda1161004e57806360a0ecda1461024f5780638f65e5e31461027a578063d8d0fcaa146103a1578063f061f3ae1461043b57610070565b80632c1c7658146100755780633bea844f146100c457806340731c2414610168575b600080fd5b34801561008157600080fd5b506100ae6004803603602081101561009857600080fd5b8101908080359060200190929190505050610469565b6040518082815260200191505060405180910390f35b3480156100d057600080fd5b50610152600480360360408110156100e757600080fd5b81019080803590602001909291908035906020019064010000000081111561010e57600080fd5b82018360208201111561012057600080fd5b8035906020019184600183028401116401000000008311171561014257600080fd5b9091929391929390505050610508565b6040518082815260200191505060405180910390f35b34801561017457600080fd5b506101a16004803603602081101561018b57600080fd5b8101908080359060200190929190505050610706565b60405180806020018373ffffffffffffffffffffffffffffffffffffffff1673ffffffffffffffffffffffffffffffffffffffff168152602001828103825284818151815260200191508051906020019080838360005b838110156102135780820151818401526020810190506101f8565b50505050905090810190601f1680156102405780820380516001836020036101000a031916815260200191505b50935050505060405180910390f35b34801561025b57600080fd5b50610264610841565b6040518082815260200191505060405180910390f35b34801561028657600080fd5b5061034a6004803603604081101561029d57600080fd5b8101908080359060200190929190803590602001906401000000008111156102c457600080fd5b8201836020820111156102d657600080fd5b803590602001918460018302840111640100000000831117156102f857600080fd5b91908080601f016020809104026020016040519081016040528093929190818152602001838380828437600081840152601f19601f820116905080830192505050505050509192919290505050610847565b6040518080602001828103825283818151815260200191508051906020019060200280838360005b8381101561038d578082015181840152602081019050610372565b505050509050019250505060405180910390f35b3480156103ad57600080fd5b50610439600480360360608110156103c457600080fd5b8101908080359060200190929190803590602001906401000000008111156103eb57600080fd5b8201836020820111156103fd57600080fd5b8035906020019184600183028401116401000000008311171561041f57600080fd5b909192939192939080359060200190929190505050610990565b005b6104676004803603602081101561045157600080fd5b8101908080359060200190929190505050610aee565b005b6000808211801561047b575060005482105b6104ed576040517f08c379a000000000000000000000000000000000000000000000000000000000815260040180806020018281038252600e8152602001807f696e76616c696420706f7374496400000000000000000000000000000000000081525060200191505060405180910390fd5b60036000838152602001908152602001600020549050919050565b6000604051806040016040528084848080601f016020809104026020016040519081016040528093929190818152602001838380828437600081840152601f19601f8201169050808301925050505050505081526020013373ffffffffffffffffffffffffffffffffffffffff16815250600260008054815260200190815260200160002060008201518160000190805190602001906105a9929190610d94565b5060208201518160010160006101000a81548173ffffffffffffffffffffffffffffffffffffffff021916908373ffffffffffffffffffffffffffffffffffffffff1602179055509050506001600085815260200190815260200160002060005490806001815401808255809150506001900390600052602060002001600090919091909150556000549050600160008082825401925050819055508060005414156106bd576040517f08c379a000000000000000000000000000000000000000000000000000000000815260040180806020018281038252601b8152602001807f657870656374656420696e6372656d656e74656420706f73744964000000000081525060200191505060405180910390fd5b7f4697182172867f8e82d6b8b101116e17916928c13a4ca4a32cb823df93155cc28185604051808381526020018281526020019250505060405180910390a18090509392505050565b60606000610712610e14565b60026000858152602001908152602001600020604051806040016040529081600082018054600181600116156101000203166002900480601f0160208091040260200160405190810160405280929190818152602001828054600181600116156101000203166002900480156107c95780601f1061079e576101008083540402835291602001916107c9565b820191906000526020600020905b8154815290600101906020018083116107ac57829003601f168201915b505050505081526020016001820160009054906101000a900473ffffffffffffffffffffffffffffffffffffffff1673ffffffffffffffffffffffffffffffffffffffff1673ffffffffffffffffffffffffffffffffffffffff16815250509050806000015181602001518191509250925050915091565b60005481565b6060600083116108bf576040517f08c379a000000000000000000000000000000000000000000000000000000000815260040180806020018281038252600e8152602001807f696e76616c69642075736572496400000000000000000000000000000000000081525060200191505060405180910390fd5b60046000848152602001908152602001600020826040518082805190602001908083835b6020831061090657805182526020820191506020810190506020830392506108e3565b6001836020036101000a038019825116818451168082178552505050505050905001915050908152602001604051809103902080548060200260200160405190810160405280929190818152602001828054801561098357602002820191906000526020600020905b81548152602001906001019080831161096f575b5050505050905092915050565b60008411610a06576040517f08c379a000000000000000000000000000000000000000000000000000000000815260040180806020018281038252600e8152602001807f696e76616c69642075736572496400000000000000000000000000000000000081525060200191505060405180910390fd5b600081118015610a17575060005481105b610a89576040517f08c379a000000000000000000000000000000000000000000000000000000000815260040180806020018281038252600e8152602001807f696e76616c696420706f7374496400000000000000000000000000000000000081525060200191505060405180910390fd5b600460008581526020019081526020016000208383604051808383808284378083019250505092505050908152602001604051809103902081908060018154018082558091505060019003906000526020600020016000909190919091505550505050565b600081118015610aff575060005481105b610b71576040517f08c379a000000000000000000000000000000000000000000000000000000000815260040180806020018281038252600e8152602001807f696e76616c696420706f7374496400000000000000000000000000000000000081525060200191505060405180910390fd5b60006002600083815260200190815260200160002060010160009054906101000a900473ffffffffffffffffffffffffffffffffffffffff169050600073ffffffffffffffffffffffffffffffffffffffff168173ffffffffffffffffffffffffffffffffffffffff161415610c4f576040517f08c379a00000000000000000000000000000000000000000000000000000000081526004018080602001828103825260138152602001807f706f737420646f6573206e6f742065786973740000000000000000000000000081525060200191505060405180910390fd5b3373ffffffffffffffffffffffffffffffffffffffff168173ffffffffffffffffffffffffffffffffffffffff161415610cf1576040517f08c379a00000000000000000000000000000000000000000000000000000000081526004018080602001828103825260158152602001807f63616e6e6f7420636865657220796f757273656c66000000000000000000000081525060200191505060405180910390fd5b8073ffffffffffffffffffffffffffffffffffffffff166108fc349081150290604051600060405180830381858888f19350505050158015610d37573d6000803e3d6000fd5b503460036000848152602001908152602001600020600082825401925050819055507f6a84b0787332cd7e9710d3fed209c6a107f791e7fc5e731326d320639419f056826040518082815260200191505060405180910390a15050565b828054600181600116156101000203166002900490600052602060002090601f016020900481019282601f10610dd557805160ff1916838001178555610e03565b82800160010185558215610e03579182015b82811115610e02578251825591602001919060010190610de7565b5b509050610e109190610e44565b5090565b604051806040016040528060608152602001600073ffffffffffffffffffffffffffffffffffffffff1681525090565b610e6691905b80821115610e62576000816000905550600101610e4a565b5090565b9056fea2646970667358221220f1f54155eba87439137b5d6f7bdb66f48d2615ab8a22a9df61b4eb6ea533f55a64736f6c63430006000033",
  "source": "// SPDX-License-Identifier: MIT\npragma solidity ^0.6.0;\n\ncontract PostContract{\n\n    struct PostMultihash {\t\n        string ipfsHash;\t\n        address owner;\n    }\n    uint public postId = 1;\n\n    // Mapping of userId to array of post ids\n    mapping(uint => uint[]) private postOwnerIds;\n\n    // Mapping of postId to Post\n    mapping(uint => PostMultihash) private postMetadataMultihashes;\n\n    // Mapping of postId to total cheered amount\n    mapping(uint => uint) private postCheeredAmount;\n\n    // Mapping of userId to their level wise posts\n    mapping(uint => mapping(string => uint[])) private userLevelPosts;\n\n\n    // Events\n    event PostCreated(uint postId, uint ownerId);\n    event Cheered(uint postId);\n\n\n    // View the post metadata for a specific postId\n    function getPost(uint _postId) view public returns (  \n        string memory ipfsHash,\n        address owner){\n        PostMultihash memory postMultihash = postMetadataMultihashes[_postId];\n        return (\n            postMultihash.ipfsHash,\n            postMultihash.owner\n        );\n    }\n\n    // Create a post\n    function addPost(uint _postOwnerId, string calldata _hash) external returns (uint _postId){\n        postMetadataMultihashes[postId] = PostMultihash({\n            ipfsHash: _hash,\n            owner: msg.sender\n        });\n        postOwnerIds[_postOwnerId].push(postId);\n        _postId = postId;\n        postId += 1;\n        require(postId != _postId, \"expected incremented postId\");\n\n        emit PostCreated(_postId, _postOwnerId);\n        return _postId;\n    }\n\n    // Cheer a creator on a post\n    function cheerCreator(uint _postId) public payable{\n        require(_postId > 0 && _postId < postId, \"invalid postId\");\n        \n        address _owner = postMetadataMultihashes[_postId].owner;\n        require(_owner != address(0x0), \"post does not exist\");\n        require(_owner != msg.sender, \"cannot cheer yourself\");\n\n        payable(_owner).transfer(msg.value);\n        postCheeredAmount[_postId] += msg.value;\n\n        emit Cheered(_postId);\n    }\n\n    // Get total cheers of a post\n    function getCheeredAmount(uint _postId) view public returns (uint _cheeredAmount){\n        require(_postId > 0 && _postId < postId, \"invalid postId\");\n        return postCheeredAmount[_postId];\n    }\n\n    // Add a post id to a user's level wise posts\n    function addPostToUserLevelPosts(uint _userId, string calldata _level, uint _postId) external{\n        require(_userId > 0, \"invalid userId\");\n        require(_postId > 0 && _postId < postId, \"invalid postId\");\n\n        userLevelPosts[_userId][_level].push(_postId);\n    }\n\n    // Get posts of a user for a specific level\n    function getPostsForUser(uint _userId, string memory _level) view public returns (uint[] memory _posts){\n        require(_userId > 0, \"invalid userId\");\n\n        return userLevelPosts[_userId][_level];\n    }\n}",
  "sourcePath": "/Users/rahulbansal/Desktop/Peer-to-Peer-Donation-dApp/contracts/Post.sol",
  "compiler": {
    "name": "solc",
    "version": "0.6.0+commit.26b70077.Emscripten.clang"
  },
  "schemaVersion": "3.4.6",
  "updatedAt": "2022-05-15T20:47:17.980Z",
  "networkType": "ethereum",
  "devdoc": {
    "methods": {}
  },
  "userdoc": {
    "methods": {}
  }
}