{
  "contractName": "Social",
  "abi": [
    {
      "anonymous": false,
      "inputs": [
        {
          "indexed": false,
          "internalType": "uint256",
          "name": "ownerId",
          "type": "uint256"
        },
        {
          "indexed": false,
          "internalType": "string",
          "name": "level",
          "type": "string"
        }
      ],
      "name": "LevelCreated",
      "type": "event"
    },
    {
      "inputs": [
        {
          "internalType": "uint256",
          "name": "_ownerId",
          "type": "uint256"
        },
        {
          "internalType": "string",
          "name": "_level",
          "type": "string"
        }
      ],
      "name": "getLevel",
      "outputs": [
        {
          "internalType": "bytes32",
          "name": "digest",
          "type": "bytes32"
        },
        {
          "internalType": "uint8",
          "name": "hashFn",
          "type": "uint8"
        },
        {
          "internalType": "uint8",
          "name": "size",
          "type": "uint8"
        },
        {
          "internalType": "address",
          "name": "owner",
          "type": "address"
        }
      ],
      "stateMutability": "view",
      "type": "function",
      "constant": true
    },
    {
      "inputs": [
        {
          "internalType": "uint256",
          "name": "_ownerId",
          "type": "uint256"
        },
        {
          "internalType": "string",
          "name": "_level",
          "type": "string"
        },
        {
          "internalType": "bytes32",
          "name": "_multihashDigest",
          "type": "bytes32"
        },
        {
          "internalType": "uint8",
          "name": "_multihashHashFn",
          "type": "uint8"
        },
        {
          "internalType": "uint8",
          "name": "_multihashSize",
          "type": "uint8"
        }
      ],
      "name": "addLevel",
      "outputs": [
        {
          "internalType": "bool",
          "name": "status",
          "type": "bool"
        }
      ],
      "stateMutability": "nonpayable",
      "type": "function"
    }
  ],
  "bytecode": "0x608060405234801561001057600080fd5b50610576806100206000396000f3fe608060405234801561001057600080fd5b50600436106100365760003560e01c80635eadbadc1461003b578063b59bc69d14610161575b600080fd5b6100fe6004803603604081101561005157600080fd5b81019080803590602001909291908035906020019064010000000081111561007857600080fd5b82018360208201111561008a57600080fd5b803590602001918460018302840111640100000000831117156100ac57600080fd5b91908080601f016020809104026020016040519081016040528093929190818152602001838380828437600081840152601f19601f820116905080830192505050505050509192919290505050610220565b604051808581526020018460ff1660ff1681526020018360ff1660ff1681526020018273ffffffffffffffffffffffffffffffffffffffff1673ffffffffffffffffffffffffffffffffffffffff16815260200194505050505060405180910390f35b610206600480360360a081101561017757600080fd5b81019080803590602001909291908035906020019064010000000081111561019e57600080fd5b8201836020820111156101b057600080fd5b803590602001918460018302840111640100000000831117156101d257600080fd5b909192939192939080359060200190929190803560ff169060200190929190803560ff169060200190929190505050610374565b604051808215151515815260200191505060405180910390f35b60008060008061022e6104f9565b600080888152602001908152602001600020866040518082805190602001908083835b602083106102745780518252602082019150602081019050602083039250610251565b6001836020036101000a0380198251168184511680821785525050505050509050019150509081526020016040518091039020604051806080016040529081600082015481526020016001820160009054906101000a900460ff1660ff1660ff1681526020016001820160019054906101000a900460ff1660ff1660ff1681526020016001820160029054906101000a900473ffffffffffffffffffffffffffffffffffffffff1673ffffffffffffffffffffffffffffffffffffffff1673ffffffffffffffffffffffffffffffffffffffff16815250509050806000015181602001518260400151836060015194509450945094505092959194509250565b600060405180608001604052808581526020018460ff1681526020018360ff1681526020013373ffffffffffffffffffffffffffffffffffffffff16815250600080898152602001908152602001600020878760405180838380828437808301925050509250505090815260200160405180910390206000820151816000015560208201518160010160006101000a81548160ff021916908360ff16021790555060408201518160010160016101000a81548160ff021916908360ff16021790555060608201518160010160026101000a81548173ffffffffffffffffffffffffffffffffffffffff021916908373ffffffffffffffffffffffffffffffffffffffff1602179055509050507fe943e58ed27df7b246e1adf7477db8339daf4e1390bb6631d30c12ca8688d0af87878760405180848152602001806020018281038252848482818152602001925080828437600081840152601f19601f82011690508083019250505094505050505060405180910390a1600190509695505050505050565b604051806080016040528060008019168152602001600060ff168152602001600060ff168152602001600073ffffffffffffffffffffffffffffffffffffffff168152509056fea2646970667358221220aab63ae6b939e0c26154013eeb3a75d3bbf7ceeb0514af0ad66f00d9395a4e3f64736f6c63430006000033",
  "source": "pragma solidity ^0.6.0;\n\ncontract Social {\n\n    struct LevelMultihash {\t\n        bytes32 digest;\t\n        uint8 hashFn;\t\n        uint8 size;\t\n        address owner;\n    }\n\n    // Mapping of users to their levels\n    // Levels can be: 'basic', 'gold', 'platinum'\n    mapping(uint => mapping(string=> LevelMultihash)) private levelOwnerIds;\n\n    // Events\n    event LevelCreated(uint ownerId, string level);\n\n    // Get level details of a user\n    function getLevel(uint _ownerId, string memory _level) public view returns (  \n        bytes32 digest,\n        uint8 hashFn,\n        uint8 size,\n        address owner\n    ) {\n        LevelMultihash memory _levelMultihas = levelOwnerIds[_ownerId][_level];\n        return (\n            _levelMultihas.digest,\n            _levelMultihas.hashFn,\n            _levelMultihas.size,\n            _levelMultihas.owner\n        );\n    }\n\n    // Create a level\n    function addLevel(uint _ownerId, string calldata _level, bytes32 _multihashDigest, uint8 _multihashHashFn, uint8 _multihashSize) external returns (bool status){\n        levelOwnerIds[_ownerId][_level] = LevelMultihash({\n            digest: _multihashDigest,\n            hashFn: _multihashHashFn,\n            size: _multihashSize,\n            owner: msg.sender\n        });\n        emit LevelCreated(_ownerId, _level);\n        return true;\n    }\n    \n    // function subscribe(){}\n    // function unsubscribe(){}\n}",
  "sourcePath": "/Users/rahulbansal/Desktop/Peer-to-Peer-Donation-dApp/contracts/Social.sol",
  "compiler": {
    "name": "solc",
    "version": "0.6.0+commit.26b70077.Emscripten.clang"
  },
  "schemaVersion": "3.4.3",
  "updatedAt": "2022-05-09T19:37:39.793Z",
  "networkType": "ethereum",
  "devdoc": {
    "methods": {}
  },
  "userdoc": {
    "methods": {}
  }
}