{
  "contractName": "Social",
  "abi": [
    {
      "anonymous": false,
      "inputs": [
        {
          "indexed": true,
          "internalType": "uint256",
          "name": "ownerId",
          "type": "uint256"
        },
        {
          "indexed": true,
          "internalType": "string",
          "name": "level",
          "type": "string"
        }
      ],
      "name": "LevelCreated",
      "type": "event"
    },
    {
      "anonymous": false,
      "inputs": [
        {
          "indexed": true,
          "internalType": "uint256",
          "name": "ownerId",
          "type": "uint256"
        },
        {
          "indexed": true,
          "internalType": "string",
          "name": "level",
          "type": "string"
        }
      ],
      "name": "LevelUpdated",
      "type": "event"
    },
    {
      "inputs": [
        {
          "internalType": "uint256",
          "name": "_ownerId",
          "type": "uint256"
        },
        {
          "internalType": "string",
          "name": "_level",
          "type": "string"
        }
      ],
      "name": "getLevel",
      "outputs": [
        {
          "internalType": "string",
          "name": "_ipfsHash",
          "type": "string"
        }
      ],
      "stateMutability": "view",
      "type": "function",
      "constant": true
    },
    {
      "inputs": [
        {
          "internalType": "uint256",
          "name": "_ownerId",
          "type": "uint256"
        },
        {
          "internalType": "string",
          "name": "_level",
          "type": "string"
        },
        {
          "internalType": "string",
          "name": "_ipfsHash",
          "type": "string"
        }
      ],
      "name": "addLevel",
      "outputs": [
        {
          "internalType": "bool",
          "name": "status",
          "type": "bool"
        }
      ],
      "stateMutability": "nonpayable",
      "type": "function"
    },
    {
      "inputs": [
        {
          "internalType": "uint256",
          "name": "_ownerId",
          "type": "uint256"
        },
        {
          "internalType": "string",
          "name": "_level",
          "type": "string"
        },
        {
          "internalType": "string",
          "name": "_ipfsHash",
          "type": "string"
        }
      ],
      "name": "updateLevel",
      "outputs": [
        {
          "internalType": "bool",
          "name": "updatePerformed",
          "type": "bool"
        }
      ],
      "stateMutability": "nonpayable",
      "type": "function"
    },
    {
      "inputs": [
        {
          "internalType": "uint256",
          "name": "_ownerId",
          "type": "uint256"
        },
        {
          "internalType": "uint256",
          "name": "_userId",
          "type": "uint256"
        },
        {
          "internalType": "string",
          "name": "_level",
          "type": "string"
        }
      ],
      "name": "subscribe",
      "outputs": [
        {
          "internalType": "bool",
          "name": "subscribed",
          "type": "bool"
        }
      ],
      "stateMutability": "nonpayable",
      "type": "function"
    },
    {
      "inputs": [
        {
          "internalType": "uint256",
          "name": "_ownerId",
          "type": "uint256"
        },
        {
          "internalType": "uint256",
          "name": "_userId",
          "type": "uint256"
        },
        {
          "internalType": "string",
          "name": "_level",
          "type": "string"
        }
      ],
      "name": "isSubscribed",
      "outputs": [
        {
          "internalType": "bool",
          "name": "subscribed",
          "type": "bool"
        }
      ],
      "stateMutability": "view",
      "type": "function",
      "constant": true
    }
  ],
  "bytecode": "0x608060405234801561001057600080fd5b50610e3d806100206000396000f3fe608060405234801561001057600080fd5b50600436106100575760003560e01c80635eadbadc1461005c578063654f9c4f1461019a57806374cd373114610281578063e8174a8114610326578063eba1520f14610416575b600080fd5b61011f6004803603604081101561007257600080fd5b81019080803590602001909291908035906020019064010000000081111561009957600080fd5b8201836020820111156100ab57600080fd5b803590602001918460018302840111640100000000831117156100cd57600080fd5b91908080601f016020809104026020016040519081016040528093929190818152602001838380828437600081840152601f19601f820116905080830192505050505050509192919290505050610506565b6040518080602001828103825283818151815260200191508051906020019080838360005b8381101561015f578082015181840152602081019050610144565b50505050905090810190601f16801561018c5780820380516001836020036101000a031916815260200191505b509250505060405180910390f35b610267600480360360608110156101b057600080fd5b810190808035906020019092919080359060200190929190803590602001906401000000008111156101e157600080fd5b8201836020820111156101f357600080fd5b8035906020019184600183028401116401000000008311171561021557600080fd5b91908080601f016020809104026020016040519081016040528093929190818152602001838380828437600081840152601f19601f8201169050808301925050505050505091929192905050506107ae565b604051808215151515815260200191505060405180910390f35b61030c6004803603606081101561029757600080fd5b810190808035906020019092919080359060200190929190803590602001906401000000008111156102c857600080fd5b8201836020820111156102da57600080fd5b803590602001918460018302840111640100000000831117156102fc57600080fd5b90919293919293905050506108f6565b604051808215151515815260200191505060405180910390f35b6103fc6004803603606081101561033c57600080fd5b81019080803590602001909291908035906020019064010000000081111561036357600080fd5b82018360208201111561037557600080fd5b8035906020019184600183028401116401000000008311171561039757600080fd5b9091929391929390803590602001906401000000008111156103b857600080fd5b8201836020820111156103ca57600080fd5b803590602001918460018302840111640100000000831117156103ec57600080fd5b9091929391929390505050610b33565b604051808215151515815260200191505060405180910390f35b6104ec6004803603606081101561042c57600080fd5b81019080803590602001909291908035906020019064010000000081111561045357600080fd5b82018360208201111561046557600080fd5b8035906020019184600183028401116401000000008311171561048757600080fd5b9091929391929390803590602001906401000000008111156104a857600080fd5b8201836020820111156104ba57600080fd5b803590602001918460018302840111640100000000831117156104dc57600080fd5b9091929391929390505050610bd5565b604051808215151515815260200191505060405180910390f35b6060828260405160200180600001905060405160208183030381529060405280519060200120600080848152602001908152602001600020826040518082805190602001908083835b60208310610572578051825260208201915060208101905060208303925061054f565b6001836020036101000a038019825116818451168082178552505050505050905001915050908152602001604051809103902060405160200180828054600181600116156101000203166002900480156106035780601f106105e1576101008083540402835291820191610603565b820191906000526020600020905b8154815290600101906020018083116105ef575b5050915050604051602081830303815290604052805190602001201415610692576040517f08c379a00000000000000000000000000000000000000000000000000000000081526004018080602001828103825260148152602001807f4c6576656c20646f65736e27742065786973747300000000000000000000000081525060200191505060405180910390fd5b600080868152602001908152602001600020846040518082805190602001908083835b602083106106d857805182526020820191506020810190506020830392506106b5565b6001836020036101000a03801982511681845116808217855250505050505090500191505090815260200160405180910390208054600181600116156101000203166002900480601f01602080910402602001604051908101604052809291908181526020018280546001816001161561010002031660029004801561079f5780601f106107745761010080835404028352916020019161079f565b820191906000526020600020905b81548152906001019060200180831161078257829003601f168201915b50505050509250505092915050565b600080905060008090505b60016000868152602001908152602001600020836040518082805190602001908083835b6020831061080057805182526020820191506020810190506020830392506107dd565b6001836020036101000a0380198251168184511680821785525050505050509050019150509081526020016040518091039020805490508110156108eb578360016000878152602001908152602001600020846040518082805190602001908083835b602083106108865780518252602082019150602081019050602083039250610863565b6001836020036101000a038019825116818451168082178552505050505050905001915050908152602001604051809103902082815481106108c457fe5b906000526020600020015414156108de57600191506108eb565b80806001019150506107b9565b508090509392505050565b60008483838080601f016020809104026020016040519081016040528093929190818152602001838380828437600081840152601f19601f8201169050808301925050505050505060405160200180600001905060405160208183030381529060405280519060200120600080848152602001908152602001600020826040518082805190602001908083835b602083106109a65780518252602082019150602081019050602083039250610983565b6001836020036101000a03801982511681845116808217855250505050505090500191505090815260200160405180910390206040516020018082805460018160011615610100020316600290048015610a375780601f10610a15576101008083540402835291820191610a37565b820191906000526020600020905b815481529060010190602001808311610a23575b5050915050604051602081830303815290604052805190602001201415610ac6576040517f08c379a00000000000000000000000000000000000000000000000000000000081526004018080602001828103825260148152602001807f4c6576656c20646f65736e27742065786973747300000000000000000000000081525060200191505060405180910390fd5b6001600088815260200190815260200160002085856040518083838082843780830192505050925050509081526020016040518091039020869080600181540180825580915050600190039060005260206000200160009091909190915055600192505050949350505050565b60008282600080898152602001908152602001600020878760405180838380828437808301925050509250505090815260200160405180910390209190610b7b929190610d62565b5084846040518083838082843780830192505050925050506040518091039020867fe943e58ed27df7b246e1adf7477db8339daf4e1390bb6631d30c12ca8688d0af60405160405180910390a36001905095945050505050565b6000809050828260405160200180838380828437808301925050509250505060405160208183030381529060405280519060200120600080888152602001908152602001600020868660405180838380828437808301925050509250505090815260200160405180910390206040516020018082805460018160011615610100020316600290048015610c9f5780601f10610c7d576101008083540402835291820191610c9f565b820191906000526020600020905b815481529060010190602001808311610c8b575b50509150506040516020818303038152906040528051906020012014610d0b578282600080898152602001908152602001600020878760405180838380828437808301925050509250505090815260200160405180910390209190610d05929190610d62565b50600190505b84846040518083838082843780830192505050925050506040518091039020867e912cb75f7067db1ccf583f994056072765d55a300fe09b6ef464bf20096d4a60405160405180910390a380905095945050505050565b828054600181600116156101000203166002900490600052602060002090601f016020900481019282601f10610da357803560ff1916838001178555610dd1565b82800160010185558215610dd1579182015b82811115610dd0578235825591602001919060010190610db5565b5b509050610dde9190610de2565b5090565b610e0491905b80821115610e00576000816000905550600101610de8565b5090565b9056fea26469706673582212203113751603c21bde7a9a17838005862d6c67fb78340f747bbb4f4365cf35b39764736f6c63430006000033",
  "source": "// SPDX-License-Identifier: MIT\npragma solidity ^0.6.0;\n\ncontract Social {\n    // Mapping of users to their level's details\n    // Levels can be: 'public', 'gold', 'platinum'\n    mapping(uint => mapping(string => string)) private levelOwnerIds;\n\n    // Mapping of owner to levels to users\n    mapping(uint => mapping(string => uint[])) private userIds;\n\n    // Events\n    event LevelCreated(uint indexed ownerId, string indexed level);\n    event LevelUpdated(uint indexed ownerId, string indexed level);\n\n    // Modifier\n    modifier levelExists(uint ownerId, string memory level) {\n        require(keccak256(abi.encodePacked(levelOwnerIds[ownerId][level]))!=keccak256(abi.encodePacked(\"\")),\"Level doesn't exists\");\n        _;\n    }   \n\n    // Get level details of a user\n    function getLevel(uint _ownerId, string memory _level) public levelExists(_ownerId, _level) view returns (  \n        string memory _ipfsHash\n    ) {\n        return levelOwnerIds[_ownerId][_level];\n    }\n\n    // Create a level\n    function addLevel(uint _ownerId, string calldata _level, string calldata _ipfsHash) external returns (bool status){\n        levelOwnerIds[_ownerId][_level] = _ipfsHash;\n        emit LevelCreated(_ownerId, _level);\n        return true;\n    }\n\n    // Update a level\n    function updateLevel(uint _ownerId, string calldata _level, string calldata _ipfsHash) external returns (bool updatePerformed){\n        updatePerformed = false;\n\n        if(keccak256(abi.encodePacked(levelOwnerIds[_ownerId][_level])) != keccak256(abi.encodePacked(_ipfsHash))){\n            levelOwnerIds[_ownerId][_level] = _ipfsHash;\n            updatePerformed = true;\n        }\n\n        emit LevelUpdated(_ownerId, _level);\n        return updatePerformed;\n    }\n    \n    // Subscribe a user to a level\n    function subscribe(uint _ownerId, uint _userId, string calldata _level) external levelExists(_ownerId, _level) returns (bool subscribed){\n        userIds[_ownerId][_level].push(_userId);      \n        return true;  \n    }\n\n    // Check if user is subscribed to a level\n    function isSubscribed(uint _ownerId, uint _userId, string memory _level) public view returns (bool subscribed){\n        subscribed = false;\n        for (uint i = 0; i < userIds[_ownerId][_level].length; i++) {\n            if(userIds[_ownerId][_level][i] == _userId){\n                subscribed = true;\n                break;\n            }\n        }\n        return subscribed;\n    }\n}",
  "sourcePath": "/Users/rahulbansal/Desktop/Popper/contracts/Social.sol",
  "compiler": {
    "name": "solc",
    "version": "0.6.0+commit.26b70077.Emscripten.clang"
  },
  "schemaVersion": "3.4.6",
  "updatedAt": "2022-05-19T09:24:57.227Z",
  "networkType": "ethereum",
  "devdoc": {
    "methods": {}
  },
  "userdoc": {
    "methods": {}
  }
}