{
  "contractName": "Social",
  "abi": [
    {
      "anonymous": false,
      "inputs": [
        {
          "indexed": false,
          "internalType": "uint256",
          "name": "ownerId",
          "type": "uint256"
        },
        {
          "indexed": false,
          "internalType": "string",
          "name": "level",
          "type": "string"
        }
      ],
      "name": "LevelCreated",
      "type": "event"
    },
    {
      "anonymous": false,
      "inputs": [
        {
          "indexed": false,
          "internalType": "uint256",
          "name": "ownerId",
          "type": "uint256"
        },
        {
          "indexed": false,
          "internalType": "string",
          "name": "level",
          "type": "string"
        }
      ],
      "name": "LevelUpdated",
      "type": "event"
    },
    {
      "inputs": [
        {
          "internalType": "uint256",
          "name": "_ownerId",
          "type": "uint256"
        },
        {
          "internalType": "string",
          "name": "_level",
          "type": "string"
        }
      ],
      "name": "getLevel",
      "outputs": [
        {
          "internalType": "string",
          "name": "digest",
          "type": "string"
        },
        {
          "internalType": "uint8",
          "name": "hashFn",
          "type": "uint8"
        },
        {
          "internalType": "uint8",
          "name": "size",
          "type": "uint8"
        }
      ],
      "stateMutability": "view",
      "type": "function"
    },
    {
      "inputs": [
        {
          "internalType": "uint256",
          "name": "_ownerId",
          "type": "uint256"
        },
        {
          "internalType": "string",
          "name": "_level",
          "type": "string"
        },
        {
          "internalType": "string",
          "name": "_multihashDigest",
          "type": "string"
        },
        {
          "internalType": "uint8",
          "name": "_multihashHashFn",
          "type": "uint8"
        },
        {
          "internalType": "uint8",
          "name": "_multihashSize",
          "type": "uint8"
        }
      ],
      "name": "addLevel",
      "outputs": [
        {
          "internalType": "bool",
          "name": "status",
          "type": "bool"
        }
      ],
      "stateMutability": "nonpayable",
      "type": "function"
    },
    {
      "inputs": [
        {
          "internalType": "uint256",
          "name": "_ownerId",
          "type": "uint256"
        },
        {
          "internalType": "string",
          "name": "_level",
          "type": "string"
        },
        {
          "internalType": "string",
          "name": "_multihashDigest",
          "type": "string"
        },
        {
          "internalType": "uint8",
          "name": "_multihashHashFn",
          "type": "uint8"
        },
        {
          "internalType": "uint8",
          "name": "_multihashSize",
          "type": "uint8"
        }
      ],
      "name": "updateLevel",
      "outputs": [
        {
          "internalType": "bool",
          "name": "updatePerformed",
          "type": "bool"
        }
      ],
      "stateMutability": "nonpayable",
      "type": "function"
    },
    {
      "inputs": [
        {
          "internalType": "uint256",
          "name": "_ownerId",
          "type": "uint256"
        },
        {
          "internalType": "uint256",
          "name": "_userId",
          "type": "uint256"
        },
        {
          "internalType": "string",
          "name": "_level",
          "type": "string"
        }
      ],
      "name": "subscribe",
      "outputs": [
        {
          "internalType": "bool",
          "name": "subscribed",
          "type": "bool"
        }
      ],
      "stateMutability": "nonpayable",
      "type": "function"
    }
  ],
  "bytecode": "0x608060405234801561001057600080fd5b50610fc8806100206000396000f3fe608060405234801561001057600080fd5b506004361061004c5760003560e01c80635eadbadc1461005157806374cd3731146101a9578063a81896f01461024e578063f007a44f14610358575b600080fd5b6101146004803603604081101561006757600080fd5b81019080803590602001909291908035906020019064010000000081111561008e57600080fd5b8201836020820111156100a057600080fd5b803590602001918460018302840111640100000000831117156100c257600080fd5b91908080601f016020809104026020016040519081016040528093929190818152602001838380828437600081840152601f19601f820116905080830192505050505050509192919290505050610462565b60405180806020018460ff1660ff1681526020018360ff1660ff168152602001828103825285818151815260200191508051906020019080838360005b8381101561016c578082015181840152602081019050610151565b50505050905090810190601f1680156101995780820380516001836020036101000a031916815260200191505b5094505050505060405180910390f35b610234600480360360608110156101bf57600080fd5b810190808035906020019092919080359060200190929190803590602001906401000000008111156101f057600080fd5b82018360208201111561020257600080fd5b8035906020019184600183028401116401000000008311171561022457600080fd5b9091929391929390505050610780565b604051808215151515815260200191505060405180910390f35b61033e600480360360a081101561026457600080fd5b81019080803590602001909291908035906020019064010000000081111561028b57600080fd5b82018360208201111561029d57600080fd5b803590602001918460018302840111640100000000831117156102bf57600080fd5b9091929391929390803590602001906401000000008111156102e057600080fd5b8201836020820111156102f257600080fd5b8035906020019184600183028401116401000000008311171561031457600080fd5b9091929391929390803560ff169060200190929190803560ff1690602001909291905050506109c0565b604051808215151515815260200191505060405180910390f35b610448600480360360a081101561036e57600080fd5b81019080803590602001909291908035906020019064010000000081111561039557600080fd5b8201836020820111156103a757600080fd5b803590602001918460018302840111640100000000831117156103c957600080fd5b9091929391929390803590602001906401000000008111156103ea57600080fd5b8201836020820111156103fc57600080fd5b8035906020019184600183028401116401000000008311171561041e57600080fd5b9091929391929390803560ff169060200190929190803560ff169060200190929190505050610b3a565b604051808215151515815260200191505060405180910390f35b6060600080848460405160200180600001905060405160208183030381529060405280519060200120600080848152602001908152602001600020826040518082805190602001908083835b602083106104d157805182526020820191506020810190506020830392506104ae565b6001836020036101000a038019825116818451168082178552505050505050905001915050908152602001604051809103902060000160405160200180828054600181600116156101000203166002900480156105655780601f10610543576101008083540402835291820191610565565b820191906000526020600020905b815481529060010190602001808311610551575b50509150506040516020818303038152906040528051906020012014156105f4576040517f08c379a00000000000000000000000000000000000000000000000000000000081526004018080602001828103825260148152602001807f4c6576656c20646f65736e27742065786973747300000000000000000000000081525060200191505060405180910390fd5b6105fc610e46565b600080898152602001908152602001600020876040518082805190602001908083835b60208310610642578051825260208201915060208101905060208303925061061f565b6001836020036101000a0380198251168184511680821785525050505050509050019150509081526020016040518091039020604051806060016040529081600082018054600181600116156101000203166002900480601f0160208091040260200160405190810160405280929190818152602001828054600181600116156101000203166002900480156107195780601f106106ee57610100808354040283529160200191610719565b820191906000526020600020905b8154815290600101906020018083116106fc57829003601f168201915b505050505081526020016001820160009054906101000a900460ff1660ff1660ff1681526020016001820160019054906101000a900460ff1660ff1660ff168152505090508060000151816020015182604001518292509550955095505050509250925092565b60008483838080601f016020809104026020016040519081016040528093929190818152602001838380828437600081840152601f19601f8201169050808301925050505050505060405160200180600001905060405160208183030381529060405280519060200120600080848152602001908152602001600020826040518082805190602001908083835b60208310610830578051825260208201915060208101905060208303925061080d565b6001836020036101000a038019825116818451168082178552505050505050905001915050908152602001604051809103902060000160405160200180828054600181600116156101000203166002900480156108c45780601f106108a25761010080835404028352918201916108c4565b820191906000526020600020905b8154815290600101906020018083116108b0575b5050915050604051602081830303815290604052805190602001201415610953576040517f08c379a00000000000000000000000000000000000000000000000000000000081526004018080602001828103825260148152602001807f4c6576656c20646f65736e27742065786973747300000000000000000000000081525060200191505060405180910390fd5b6001600087815260200190815260200160002085856040518083838082843780830192505050925050509081526020016040518091039020879080600181540180825580915050600190039060005260206000200160009091909190915055600192505050949350505050565b6000604051806060016040528086868080601f016020809104026020016040519081016040528093929190818152602001838380828437600081840152601f19601f8201169050808301925050505050505081526020018460ff1681526020018360ff168152506000808a8152602001908152602001600020888860405180838380828437808301925050509250505090815260200160405180910390206000820151816000019080519060200190610a7a929190610e6d565b5060208201518160010160006101000a81548160ff021916908360ff16021790555060408201518160010160016101000a81548160ff021916908360ff1602179055509050507fe943e58ed27df7b246e1adf7477db8339daf4e1390bb6631d30c12ca8688d0af88888860405180848152602001806020018281038252848482818152602001925080828437600081840152601f19601f82011690508083019250505094505050505060405180910390a160019050979650505050505050565b60008090508484604051602001808383808284378083019250505092505050604051602081830303815290604052805190602001206000808a8152602001908152602001600020888860405180838380828437808301925050509250505090815260200160405180910390206000016040516020018082805460018160011615610100020316600290048015610c075780601f10610be5576101008083540402835291820191610c07565b820191906000526020600020905b815481529060010190602001808311610bf3575b50509150506040516020818303038152906040528051906020012014610c765784846000808b8152602001908152602001600020898960405180838380828437808301925050509250505090815260200160405180910390206000019190610c70929190610eed565b50600190505b8260ff166000808a81526020019081526020016000208888604051808383808284378083019250505092505050908152602001604051809103902060010160009054906101000a900460ff1660ff1614610d2257826000808a81526020019081526020016000208888604051808383808284378083019250505092505050908152602001604051809103902060010160006101000a81548160ff021916908360ff160217905550600190505b8160ff166000808a81526020019081526020016000208888604051808383808284378083019250505092505050908152602001604051809103902060010160019054906101000a900460ff1660ff1614610dce57816000808a81526020019081526020016000208888604051808383808284378083019250505092505050908152602001604051809103902060010160016101000a81548160ff021916908360ff160217905550600190505b7e912cb75f7067db1ccf583f994056072765d55a300fe09b6ef464bf20096d4a88888860405180848152602001806020018281038252848482818152602001925080828437600081840152601f19601f82011690508083019250505094505050505060405180910390a1809050979650505050505050565b604051806060016040528060608152602001600060ff168152602001600060ff1681525090565b828054600181600116156101000203166002900490600052602060002090601f016020900481019282601f10610eae57805160ff1916838001178555610edc565b82800160010185558215610edc579182015b82811115610edb578251825591602001919060010190610ec0565b5b509050610ee99190610f6d565b5090565b828054600181600116156101000203166002900490600052602060002090601f016020900481019282601f10610f2e57803560ff1916838001178555610f5c565b82800160010185558215610f5c579182015b82811115610f5b578235825591602001919060010190610f40565b5b509050610f699190610f6d565b5090565b610f8f91905b80821115610f8b576000816000905550600101610f73565b5090565b9056fea2646970667358221220799d33e16a43b4561980f5f21606109e3edf97e220c9d467ae00dccf4f8a7b0f64736f6c63430006000033",
  "source": "// SPDX-License-Identifier: MIT\npragma solidity ^0.6.0;\n\ncontract Social {\n    struct LevelMultihash {\t\n        string digest;\t\n        uint8 hashFn;\t\n        uint8 size;\t\n    }\n\n    // Mapping of users to their level's details\n    // Levels can be: 'basic', 'gold', 'platinum'\n    mapping(uint => mapping(string => LevelMultihash)) private levelOwnerIds;\n\n    // Mapping of user to owner and the level subscribed\n    mapping(uint => mapping(string => uint[])) private userIds;\n\n    // Events\n    event LevelCreated(uint ownerId, string level);\n    event LevelUpdated(uint ownerId, string level);\n\n    // Modifier\n    modifier levelExists(uint ownerId, string memory level) {\n        require(keccak256(abi.encodePacked(levelOwnerIds[ownerId][level].digest))!=keccak256(abi.encodePacked(\"\")),\"Level doesn't exists\");\n        _;\n    }   \n\n    // Get level details of a user\n    function getLevel(uint _ownerId, string memory _level) public levelExists(_ownerId, _level) view returns (  \n        string memory digest,\n        uint8 hashFn,\n        uint8 size\n    ) {\n        LevelMultihash memory _levelMultihash = levelOwnerIds[_ownerId][_level];\n        return (_levelMultihash.digest, _levelMultihash.hashFn, _levelMultihash.size);\n    }\n\n    // Create a level\n    function addLevel(uint _ownerId, string calldata _level, string calldata _multihashDigest, uint8 _multihashHashFn, uint8 _multihashSize) external returns (bool status){\n        levelOwnerIds[_ownerId][_level] = LevelMultihash({\n            digest: _multihashDigest,\n            hashFn: _multihashHashFn,\n            size: _multihashSize\n        });\n        emit LevelCreated(_ownerId, _level);\n        return true;\n    }\n\n    // Update a level\n    function updateLevel(uint _ownerId, string calldata _level, string calldata _multihashDigest, uint8 _multihashHashFn, uint8 _multihashSize) external returns (bool updatePerformed){\n        updatePerformed = false;\n\n        if(keccak256(abi.encodePacked(levelOwnerIds[_ownerId][_level].digest)) != keccak256(abi.encodePacked(_multihashDigest))){\n            levelOwnerIds[_ownerId][_level].digest = _multihashDigest;\n            updatePerformed = true;\n        }\n\n        if(levelOwnerIds[_ownerId][_level].hashFn != _multihashHashFn){\n            levelOwnerIds[_ownerId][_level].hashFn = _multihashHashFn;\n            updatePerformed = true;\n        }\n\n        if(levelOwnerIds[_ownerId][_level].size != _multihashSize){\n            levelOwnerIds[_ownerId][_level].size = _multihashSize;\n            updatePerformed = true;\n        }\n\n        emit LevelUpdated(_ownerId, _level);\n        return updatePerformed;\n    }\n    \n    // Subscribe a user to a level\n    function subscribe(uint _ownerId, uint _userId, string calldata _level) external levelExists(_ownerId, _level) returns (bool subscribed){\n        userIds[_userId][_level].push(_ownerId);      \n        return true;  \n    }\n}",
  "sourcePath": "/Users/rahulbansal/Desktop/Peer-to-Peer-Donation-dApp/contracts/Social.sol",
  "compiler": {
    "name": "solc",
    "version": "0.6.0+commit.26b70077.Emscripten.clang"
  },
  "schemaVersion": "3.4.3",
  "updatedAt": "2022-05-10T19:40:57.464Z",
  "devdoc": {
    "methods": {}
  },
  "userdoc": {
    "methods": {}
  }
}