{
  "contractName": "Social",
  "abi": [
    {
      "anonymous": false,
      "inputs": [
        {
          "indexed": false,
          "internalType": "uint256",
          "name": "ownerId",
          "type": "uint256"
        },
        {
          "indexed": false,
          "internalType": "string",
          "name": "level",
          "type": "string"
        }
      ],
      "name": "LevelCreated",
      "type": "event"
    },
    {
      "anonymous": false,
      "inputs": [
        {
          "indexed": false,
          "internalType": "uint256",
          "name": "ownerId",
          "type": "uint256"
        },
        {
          "indexed": false,
          "internalType": "string",
          "name": "level",
          "type": "string"
        }
      ],
      "name": "LevelUpdated",
      "type": "event"
    },
    {
      "inputs": [
        {
          "internalType": "uint256",
          "name": "_ownerId",
          "type": "uint256"
        },
        {
          "internalType": "string",
          "name": "_level",
          "type": "string"
        }
      ],
      "name": "getLevel",
      "outputs": [
        {
          "internalType": "string",
          "name": "_ipfsHash",
          "type": "string"
        }
      ],
      "stateMutability": "view",
      "type": "function",
      "constant": true
    },
    {
      "inputs": [
        {
          "internalType": "uint256",
          "name": "_ownerId",
          "type": "uint256"
        },
        {
          "internalType": "string",
          "name": "_level",
          "type": "string"
        },
        {
          "internalType": "string",
          "name": "_ipfsHash",
          "type": "string"
        }
      ],
      "name": "addLevel",
      "outputs": [
        {
          "internalType": "bool",
          "name": "status",
          "type": "bool"
        }
      ],
      "stateMutability": "nonpayable",
      "type": "function"
    },
    {
      "inputs": [
        {
          "internalType": "uint256",
          "name": "_ownerId",
          "type": "uint256"
        },
        {
          "internalType": "string",
          "name": "_level",
          "type": "string"
        },
        {
          "internalType": "string",
          "name": "_ipfsHash",
          "type": "string"
        }
      ],
      "name": "updateLevel",
      "outputs": [
        {
          "internalType": "bool",
          "name": "updatePerformed",
          "type": "bool"
        }
      ],
      "stateMutability": "nonpayable",
      "type": "function"
    },
    {
      "inputs": [
        {
          "internalType": "uint256",
          "name": "_ownerId",
          "type": "uint256"
        },
        {
          "internalType": "uint256",
          "name": "_userId",
          "type": "uint256"
        },
        {
          "internalType": "string",
          "name": "_level",
          "type": "string"
        }
      ],
      "name": "subscribe",
      "outputs": [
        {
          "internalType": "bool",
          "name": "subscribed",
          "type": "bool"
        }
      ],
      "stateMutability": "nonpayable",
      "type": "function"
    }
  ],
  "bytecode": "0x608060405234801561001057600080fd5b50610c41806100206000396000f3fe608060405234801561001057600080fd5b506004361061004c5760003560e01c80635eadbadc1461005157806374cd37311461018f578063e8174a8114610234578063eba1520f14610324575b600080fd5b6101146004803603604081101561006757600080fd5b81019080803590602001909291908035906020019064010000000081111561008e57600080fd5b8201836020820111156100a057600080fd5b803590602001918460018302840111640100000000831117156100c257600080fd5b91908080601f016020809104026020016040519081016040528093929190818152602001838380828437600081840152601f19601f820116905080830192505050505050509192919290505050610414565b6040518080602001828103825283818151815260200191508051906020019080838360005b83811015610154578082015181840152602081019050610139565b50505050905090810190601f1680156101815780820380516001836020036101000a031916815260200191505b509250505060405180910390f35b61021a600480360360608110156101a557600080fd5b810190808035906020019092919080359060200190929190803590602001906401000000008111156101d657600080fd5b8201836020820111156101e857600080fd5b8035906020019184600183028401116401000000008311171561020a57600080fd5b90919293919293905050506106bc565b604051808215151515815260200191505060405180910390f35b61030a6004803603606081101561024a57600080fd5b81019080803590602001909291908035906020019064010000000081111561027157600080fd5b82018360208201111561028357600080fd5b803590602001918460018302840111640100000000831117156102a557600080fd5b9091929391929390803590602001906401000000008111156102c657600080fd5b8201836020820111156102d857600080fd5b803590602001918460018302840111640100000000831117156102fa57600080fd5b90919293919293905050506108f9565b604051808215151515815260200191505060405180910390f35b6103fa6004803603606081101561033a57600080fd5b81019080803590602001909291908035906020019064010000000081111561036157600080fd5b82018360208201111561037357600080fd5b8035906020019184600183028401116401000000008311171561039557600080fd5b9091929391929390803590602001906401000000008111156103b657600080fd5b8201836020820111156103c857600080fd5b803590602001918460018302840111640100000000831117156103ea57600080fd5b90919293919293905050506109ba565b604051808215151515815260200191505060405180910390f35b6060828260405160200180600001905060405160208183030381529060405280519060200120600080848152602001908152602001600020826040518082805190602001908083835b60208310610480578051825260208201915060208101905060208303925061045d565b6001836020036101000a038019825116818451168082178552505050505050905001915050908152602001604051809103902060405160200180828054600181600116156101000203166002900480156105115780601f106104ef576101008083540402835291820191610511565b820191906000526020600020905b8154815290600101906020018083116104fd575b50509150506040516020818303038152906040528051906020012014156105a0576040517f08c379a00000000000000000000000000000000000000000000000000000000081526004018080602001828103825260148152602001807f4c6576656c20646f65736e27742065786973747300000000000000000000000081525060200191505060405180910390fd5b600080868152602001908152602001600020846040518082805190602001908083835b602083106105e657805182526020820191506020810190506020830392506105c3565b6001836020036101000a03801982511681845116808217855250505050505090500191505090815260200160405180910390208054600181600116156101000203166002900480601f0160208091040260200160405190810160405280929190818152602001828054600181600116156101000203166002900480156106ad5780601f10610682576101008083540402835291602001916106ad565b820191906000526020600020905b81548152906001019060200180831161069057829003601f168201915b50505050509250505092915050565b60008483838080601f016020809104026020016040519081016040528093929190818152602001838380828437600081840152601f19601f8201169050808301925050505050505060405160200180600001905060405160208183030381529060405280519060200120600080848152602001908152602001600020826040518082805190602001908083835b6020831061076c5780518252602082019150602081019050602083039250610749565b6001836020036101000a038019825116818451168082178552505050505050905001915050908152602001604051809103902060405160200180828054600181600116156101000203166002900480156107fd5780601f106107db5761010080835404028352918201916107fd565b820191906000526020600020905b8154815290600101906020018083116107e9575b505091505060405160208183030381529060405280519060200120141561088c576040517f08c379a00000000000000000000000000000000000000000000000000000000081526004018080602001828103825260148152602001807f4c6576656c20646f65736e27742065786973747300000000000000000000000081525060200191505060405180910390fd5b6001600087815260200190815260200160002085856040518083838082843780830192505050925050509081526020016040518091039020879080600181540180825580915050600190039060005260206000200160009091909190915055600192505050949350505050565b60008282600080898152602001908152602001600020878760405180838380828437808301925050509250505090815260200160405180910390209190610941929190610b66565b507fe943e58ed27df7b246e1adf7477db8339daf4e1390bb6631d30c12ca8688d0af86868660405180848152602001806020018281038252848482818152602001925080828437600081840152601f19601f82011690508083019250505094505050505060405180910390a16001905095945050505050565b6000809050828260405160200180838380828437808301925050509250505060405160208183030381529060405280519060200120600080888152602001908152602001600020868660405180838380828437808301925050509250505090815260200160405180910390206040516020018082805460018160011615610100020316600290048015610a845780601f10610a62576101008083540402835291820191610a84565b820191906000526020600020905b815481529060010190602001808311610a70575b50509150506040516020818303038152906040528051906020012014610af0578282600080898152602001908152602001600020878760405180838380828437808301925050509250505090815260200160405180910390209190610aea929190610b66565b50600190505b7e912cb75f7067db1ccf583f994056072765d55a300fe09b6ef464bf20096d4a86868660405180848152602001806020018281038252848482818152602001925080828437600081840152601f19601f82011690508083019250505094505050505060405180910390a180905095945050505050565b828054600181600116156101000203166002900490600052602060002090601f016020900481019282601f10610ba757803560ff1916838001178555610bd5565b82800160010185558215610bd5579182015b82811115610bd4578235825591602001919060010190610bb9565b5b509050610be29190610be6565b5090565b610c0891905b80821115610c04576000816000905550600101610bec565b5090565b9056fea26469706673582212201cd33e685ea1409f2715e74595e4f27f7ae9ad1e00e6cb498fb49bc811cd54a064736f6c63430006000033",
  "source": "// SPDX-License-Identifier: MIT\npragma solidity ^0.6.0;\n\ncontract Social {\n    // Mapping of users to their level's details\n    // Levels can be: 'basic', 'gold', 'platinum'\n    mapping(uint => mapping(string => string)) private levelOwnerIds;\n\n    // Mapping of user to owner and the level subscribed\n    mapping(uint => mapping(string => uint[])) private userIds;\n\n    // Events\n    event LevelCreated(uint ownerId, string level);\n    event LevelUpdated(uint ownerId, string level);\n\n    // Modifier\n    modifier levelExists(uint ownerId, string memory level) {\n        require(keccak256(abi.encodePacked(levelOwnerIds[ownerId][level]))!=keccak256(abi.encodePacked(\"\")),\"Level doesn't exists\");\n        _;\n    }   \n\n    // Get level details of a user\n    function getLevel(uint _ownerId, string memory _level) public levelExists(_ownerId, _level) view returns (  \n        string memory _ipfsHash\n    ) {\n        return levelOwnerIds[_ownerId][_level];\n    }\n\n    // Create a level\n    function addLevel(uint _ownerId, string calldata _level, string calldata _ipfsHash) external returns (bool status){\n        levelOwnerIds[_ownerId][_level] = _ipfsHash;\n        emit LevelCreated(_ownerId, _level);\n        return true;\n    }\n\n    // Update a level\n    function updateLevel(uint _ownerId, string calldata _level, string calldata _ipfsHash) external returns (bool updatePerformed){\n        updatePerformed = false;\n\n        if(keccak256(abi.encodePacked(levelOwnerIds[_ownerId][_level])) != keccak256(abi.encodePacked(_ipfsHash))){\n            levelOwnerIds[_ownerId][_level] = _ipfsHash;\n            updatePerformed = true;\n        }\n\n        emit LevelUpdated(_ownerId, _level);\n        return updatePerformed;\n    }\n    \n    // Subscribe a user to a level\n    function subscribe(uint _ownerId, uint _userId, string calldata _level) external levelExists(_ownerId, _level) returns (bool subscribed){\n        userIds[_userId][_level].push(_ownerId);      \n        return true;  \n    }\n}",
  "sourcePath": "/Users/rahulbansal/Desktop/Peer-to-Peer-Donation-dApp/contracts/Social.sol",
  "compiler": {
    "name": "solc",
    "version": "0.6.0+commit.26b70077.Emscripten.clang"
  },
  "schemaVersion": "3.4.6",
  "updatedAt": "2022-05-15T20:47:18.010Z",
  "networkType": "ethereum",
  "devdoc": {
    "methods": {}
  },
  "userdoc": {
    "methods": {}
  }
}