{
  "contractName": "User",
  "abi": [
    {
      "anonymous": false,
      "inputs": [
        {
          "indexed": false,
          "internalType": "uint256",
          "name": "id",
          "type": "uint256"
        },
        {
          "indexed": true,
          "internalType": "string",
          "name": "name",
          "type": "string"
        },
        {
          "indexed": true,
          "internalType": "address",
          "name": "wallet",
          "type": "address"
        }
      ],
      "name": "UserCreated",
      "type": "event"
    },
    {
      "anonymous": false,
      "inputs": [
        {
          "indexed": false,
          "internalType": "uint256",
          "name": "id",
          "type": "uint256"
        },
        {
          "indexed": true,
          "internalType": "string",
          "name": "name",
          "type": "string"
        },
        {
          "indexed": true,
          "internalType": "address",
          "name": "wallet",
          "type": "address"
        }
      ],
      "name": "UserUpdated",
      "type": "event"
    },
    {
      "inputs": [],
      "name": "userId",
      "outputs": [
        {
          "internalType": "uint256",
          "name": "",
          "type": "uint256"
        }
      ],
      "stateMutability": "view",
      "type": "function",
      "constant": true
    },
    {
      "inputs": [
        {
          "internalType": "string",
          "name": "_name",
          "type": "string"
        }
      ],
      "name": "createUser",
      "outputs": [
        {
          "internalType": "uint256",
          "name": "_userId",
          "type": "uint256"
        }
      ],
      "stateMutability": "nonpayable",
      "type": "function"
    },
    {
      "inputs": [
        {
          "internalType": "string",
          "name": "_name",
          "type": "string"
        },
        {
          "internalType": "address",
          "name": "_wallet",
          "type": "address"
        }
      ],
      "name": "updateUser",
      "outputs": [],
      "stateMutability": "nonpayable",
      "type": "function"
    },
    {
      "inputs": [
        {
          "internalType": "address",
          "name": "_wallet",
          "type": "address"
        }
      ],
      "name": "getUser",
      "outputs": [
        {
          "internalType": "uint256",
          "name": "id",
          "type": "uint256"
        },
        {
          "internalType": "string",
          "name": "name",
          "type": "string"
        },
        {
          "internalType": "address",
          "name": "wallet",
          "type": "address"
        }
      ],
      "stateMutability": "view",
      "type": "function",
      "constant": true
    }
  ],
  "bytecode": "0x6080604052600160005534801561001557600080fd5b50610b54806100256000396000f3fe608060405234801561001057600080fd5b506004361061004c5760003560e01c8063507ffba51461005157806358975919146101205780636f77926b1461013e578063a484356314610235575b600080fd5b61010a6004803603602081101561006757600080fd5b810190808035906020019064010000000081111561008457600080fd5b82018360208201111561009657600080fd5b803590602001918460018302840111640100000000831117156100b857600080fd5b91908080601f016020809104026020016040519081016040528093929190818152602001838380828437600081840152601f19601f820116905080830192505050505050509192919290505050610310565b6040518082815260200191505060405180910390f35b610128610644565b6040518082815260200191505060405180910390f35b6101806004803603602081101561015457600080fd5b81019080803573ffffffffffffffffffffffffffffffffffffffff16906020019092919050505061064a565b60405180848152602001806020018373ffffffffffffffffffffffffffffffffffffffff1673ffffffffffffffffffffffffffffffffffffffff168152602001828103825284818151815260200191508051906020019080838360005b838110156101f85780820151818401526020810190506101dd565b50505050905090810190601f1680156102255780820380516001836020036101000a031916815260200191505b5094505050505060405180910390f35b61030e6004803603604081101561024b57600080fd5b810190808035906020019064010000000081111561026857600080fd5b82018360208201111561027a57600080fd5b8035906020019184600183028401116401000000008311171561029c57600080fd5b91908080601f016020809104026020016040519081016040528093929190818152602001838380828437600081840152601f19601f820116905080830192505050505050509192919290803573ffffffffffffffffffffffffffffffffffffffff169060200190929190505050610753565b005b6000336000600160008373ffffffffffffffffffffffffffffffffffffffff1673ffffffffffffffffffffffffffffffffffffffff16815260200190815260200160002054146103c8576040517f08c379a00000000000000000000000000000000000000000000000000000000081526004018080602001828103825260138152602001807f5573657220616c7265616479206578697374730000000000000000000000000081525060200191505060405180910390fd5b3383600073ffffffffffffffffffffffffffffffffffffffff168273ffffffffffffffffffffffffffffffffffffffff1614158015610408575060008151115b61041157600080fd5b60405180604001604052808681526020013373ffffffffffffffffffffffffffffffffffffffff168152506002600080548152602001908152602001600020600082015181600001908051906020019061046c929190610a79565b5060208201518160010160006101000a81548173ffffffffffffffffffffffffffffffffffffffff021916908373ffffffffffffffffffffffffffffffffffffffff160217905550905050600054600160003373ffffffffffffffffffffffffffffffffffffffff1673ffffffffffffffffffffffffffffffffffffffff1681526020019081526020016000208190555060005493506001600080828254019250508190555083600054141561058a576040517f08c379a000000000000000000000000000000000000000000000000000000000815260040180806020018281038252601b8152602001807f657870656374656420696e6372656d656e74656420757365724964000000000081525060200191505060405180910390fd5b3373ffffffffffffffffffffffffffffffffffffffff16856040518082805190602001908083835b602083106105d557805182526020820191506020810190506020830392506105b2565b6001836020036101000a03801982511681845116808217855250505050505090500191505060405180910390207f1c81d7053f5e6f875e0d7b584d3354071899b7dc927e6d7b48b58caa90cf3de8866040518082815260200191505060405180910390a3839350505050919050565b60005481565b600060606000600160008573ffffffffffffffffffffffffffffffffffffffff1673ffffffffffffffffffffffffffffffffffffffff168152602001908152602001600020549250600260008481526020019081526020016000206000018054600181600116156101000203166002900480601f01602080910402602001604051908101604052809291908181526020018280546001816001161561010002031660029004801561073c5780601f106107115761010080835404028352916020019161073c565b820191906000526020600020905b81548152906001019060200180831161071f57829003601f168201915b505050505091508282859250925092509193909250565b806000600160008373ffffffffffffffffffffffffffffffffffffffff1673ffffffffffffffffffffffffffffffffffffffff1681526020019081526020016000205414610809576040517f08c379a00000000000000000000000000000000000000000000000000000000081526004018080602001828103825260138152602001807f5573657220616c7265616479206578697374730000000000000000000000000081525060200191505060405180910390fd5b8183600073ffffffffffffffffffffffffffffffffffffffff168273ffffffffffffffffffffffffffffffffffffffff1614158015610849575060008151115b61085257600080fd5b6000600160003373ffffffffffffffffffffffffffffffffffffffff1673ffffffffffffffffffffffffffffffffffffffff168152602001908152602001600020549050600160003373ffffffffffffffffffffffffffffffffffffffff1673ffffffffffffffffffffffffffffffffffffffff1681526020019081526020016000206000905560405180604001604052808781526020018673ffffffffffffffffffffffffffffffffffffffff16815250600260008381526020019081526020016000206000820151816000019080519060200190610933929190610a79565b5060208201518160010160006101000a81548173ffffffffffffffffffffffffffffffffffffffff021916908373ffffffffffffffffffffffffffffffffffffffff16021790555090505080600160008773ffffffffffffffffffffffffffffffffffffffff1673ffffffffffffffffffffffffffffffffffffffff168152602001908152602001600020819055508473ffffffffffffffffffffffffffffffffffffffff16866040518082805190602001908083835b60208310610a0d57805182526020820191506020810190506020830392506109ea565b6001836020036101000a03801982511681845116808217855250505050505090500191505060405180910390207f2faa3c2af7bd2b475175fb9f0039692c05247b48687f580a1b184c2864782486836040518082815260200191505060405180910390a3505050505050565b828054600181600116156101000203166002900490600052602060002090601f016020900481019282601f10610aba57805160ff1916838001178555610ae8565b82800160010185558215610ae8579182015b82811115610ae7578251825591602001919060010190610acc565b5b509050610af59190610af9565b5090565b610b1b91905b80821115610b17576000816000905550600101610aff565b5090565b9056fea264697066735822122037ad27066c1d578611db4b337b997e25871ce91a7a4c05f3532267e7ec85414864736f6c63430006000033",
  "source": "// SPDX-License-Identifier: MIT\npragma solidity ^0.6.0;\n\ncontract User{\n    struct UserDetails{\n        string name;\n        address wallet;\n    }\n\n    uint public userId = 1;\n\n    // Mapping of user's wallet to their id\n    mapping(address => uint256) private usersWallet;\n\n    // Mapping of user's id to their details\n    mapping(uint256 => UserDetails) private users;\n\n    // Events\n    event UserCreated(\n        uint256 id,\n        string indexed name,\n        address indexed wallet\n    );\n    event UserUpdated(\n        uint256 id,\n        string indexed name,\n        address indexed wallet\n    );\n\n    // Modifier\n    modifier userExists(address wallet){\n        require(usersWallet[wallet] == 0, 'User already exists');\n        _;\n    }\n    modifier userCondition(address _wallet, string memory _name){\n        require(_wallet != address(0x0) && bytes(_name).length > 0);\n        _;\n    }\n\n    // Create a user\n    function createUser(string memory _name) public userExists(msg.sender) userCondition(msg.sender, _name) returns (uint256 _userId){\n\n        users[userId] = UserDetails(_name ,msg.sender);\n        usersWallet[msg.sender] = userId;\n\n        _userId = userId;\n        userId += 1;\n        require(userId != _userId, \"expected incremented userId\");\n\n        emit UserCreated(_userId, _name, msg.sender);\n        return _userId;\n    }\n\n    // Update a user\n    function updateUser(string memory _name, address _wallet) userExists(_wallet) userCondition(_wallet, _name) public{\n        uint256 _id = usersWallet[msg.sender];\n\n        delete usersWallet[msg.sender];\n\n        users[_id] = UserDetails(_name,_wallet);\n        usersWallet[_wallet] = _id;\n\n        emit UserUpdated(_id, _name, _wallet);\n    }\n\n    // Get user details\n    function getUser(address _wallet) public view returns (uint256 id, string memory name, address wallet){\n        id = usersWallet[_wallet];\n        name = users[id].name;\n        return (id, name, _wallet);\n    }\n}",
  "sourcePath": "/Users/rahulbansal/Desktop/Popper/contracts/User.sol",
  "compiler": {
    "name": "solc",
    "version": "0.6.0+commit.26b70077.Emscripten.clang"
  },
  "schemaVersion": "3.4.6",
  "updatedAt": "2022-05-20T09:19:31.790Z",
  "networkType": "ethereum",
  "devdoc": {
    "methods": {}
  },
  "userdoc": {
    "methods": {}
  }
}