{
  "contractName": "User",
  "abi": [
    {
      "anonymous": false,
      "inputs": [
        {
          "indexed": false,
          "internalType": "uint256",
          "name": "id",
          "type": "uint256"
        },
        {
          "indexed": false,
          "internalType": "string",
          "name": "name",
          "type": "string"
        },
        {
          "indexed": false,
          "internalType": "address",
          "name": "wallet",
          "type": "address"
        }
      ],
      "name": "UserCreated",
      "type": "event"
    },
    {
      "anonymous": false,
      "inputs": [
        {
          "indexed": false,
          "internalType": "uint256",
          "name": "id",
          "type": "uint256"
        },
        {
          "indexed": false,
          "internalType": "string",
          "name": "name",
          "type": "string"
        },
        {
          "indexed": false,
          "internalType": "address",
          "name": "wallet",
          "type": "address"
        }
      ],
      "name": "UserUpdated",
      "type": "event"
    },
    {
      "inputs": [],
      "name": "userId",
      "outputs": [
        {
          "internalType": "uint256",
          "name": "",
          "type": "uint256"
        }
      ],
      "stateMutability": "view",
      "type": "function"
    },
    {
      "inputs": [
        {
          "internalType": "string",
          "name": "_name",
          "type": "string"
        },
        {
          "internalType": "address",
          "name": "_wallet",
          "type": "address"
        }
      ],
      "name": "createUser",
      "outputs": [
        {
          "internalType": "uint256",
          "name": "_userId",
          "type": "uint256"
        }
      ],
      "stateMutability": "nonpayable",
      "type": "function"
    },
    {
      "inputs": [
        {
          "internalType": "string",
          "name": "_name",
          "type": "string"
        },
        {
          "internalType": "address",
          "name": "_wallet",
          "type": "address"
        }
      ],
      "name": "updateUser",
      "outputs": [],
      "stateMutability": "nonpayable",
      "type": "function"
    },
    {
      "inputs": [
        {
          "internalType": "address",
          "name": "_wallet",
          "type": "address"
        }
      ],
      "name": "getUser",
      "outputs": [
        {
          "internalType": "uint256",
          "name": "_id",
          "type": "uint256"
        },
        {
          "internalType": "string",
          "name": "_name",
          "type": "string"
        }
      ],
      "stateMutability": "view",
      "type": "function"
    }
  ],
  "bytecode": "0x6080604052600160005534801561001557600080fd5b50610c22806100256000396000f3fe608060405234801561001057600080fd5b506004361061004c5760003560e01c806358975919146100515780636f77926b1461006f578063a484356314610133578063f555ffb41461020e575b600080fd5b6100596102fd565b6040518082815260200191505060405180910390f35b6100b16004803603602081101561008557600080fd5b81019080803573ffffffffffffffffffffffffffffffffffffffff169060200190929190505050610303565b6040518083815260200180602001828103825283818151815260200191508051906020019080838360005b838110156100f75780820151818401526020810190506100dc565b50505050905090810190601f1680156101245780820380516001836020036101000a031916815260200191505b50935050505060405180910390f35b61020c6004803603604081101561014957600080fd5b810190808035906020019064010000000081111561016657600080fd5b82018360208201111561017857600080fd5b8035906020019184600183028401116401000000008311171561019a57600080fd5b91908080601f016020809104026020016040519081016040528093929190818152602001838380828437600081840152601f19601f820116905080830192505050505050509192919290803573ffffffffffffffffffffffffffffffffffffffff169060200190929190505050610405565b005b6102e76004803603604081101561022457600080fd5b810190808035906020019064010000000081111561024157600080fd5b82018360208201111561025357600080fd5b8035906020019184600183028401116401000000008311171561027557600080fd5b91908080601f016020809104026020016040519081016040528093929190818152602001838380828437600081840152601f19601f820116905080830192505050505050509192919290803573ffffffffffffffffffffffffffffffffffffffff1690602001909291905050506107a1565b6040518082815260200191505060405180910390f35b60005481565b60006060600160008473ffffffffffffffffffffffffffffffffffffffff1673ffffffffffffffffffffffffffffffffffffffff168152602001908152602001600020549150600260008381526020019081526020016000206000018054600181600116156101000203166002900480601f0160208091040260200160405190810160405280929190818152602001828054600181600116156101000203166002900480156103f35780601f106103c8576101008083540402835291602001916103f3565b820191906000526020600020905b8154815290600101906020018083116103d657829003601f168201915b50505050509050818191509150915091565b806000600160008373ffffffffffffffffffffffffffffffffffffffff1673ffffffffffffffffffffffffffffffffffffffff16815260200190815260200160002054146104bb576040517f08c379a00000000000000000000000000000000000000000000000000000000081526004018080602001828103825260138152602001807f5573657220616c7265616479206578697374730000000000000000000000000081525060200191505060405180910390fd5b8183600073ffffffffffffffffffffffffffffffffffffffff168273ffffffffffffffffffffffffffffffffffffffff16141580156104fb575060008151115b61050457600080fd5b6000600160003373ffffffffffffffffffffffffffffffffffffffff1673ffffffffffffffffffffffffffffffffffffffff168152602001908152602001600020549050600160003373ffffffffffffffffffffffffffffffffffffffff1673ffffffffffffffffffffffffffffffffffffffff1681526020019081526020016000206000905560026000828152602001908152602001600020600080820160006105af9190610aff565b6001820160006101000a81549073ffffffffffffffffffffffffffffffffffffffff0219169055505060405180604001604052808781526020018673ffffffffffffffffffffffffffffffffffffffff16815250600260008381526020019081526020016000206000820151816000019080519060200190610632929190610b47565b5060208201518160010160006101000a81548173ffffffffffffffffffffffffffffffffffffffff021916908373ffffffffffffffffffffffffffffffffffffffff16021790555090505080600160008773ffffffffffffffffffffffffffffffffffffffff1673ffffffffffffffffffffffffffffffffffffffff168152602001908152602001600020819055507f2faa3c2af7bd2b475175fb9f0039692c05247b48687f580a1b184c286478248681878760405180848152602001806020018373ffffffffffffffffffffffffffffffffffffffff1673ffffffffffffffffffffffffffffffffffffffff168152602001828103825284818151815260200191508051906020019080838360005b8381101561075d578082015181840152602081019050610742565b50505050905090810190601f16801561078a5780820380516001836020036101000a031916815260200191505b5094505050505060405180910390a1505050505050565b6000816000600160008373ffffffffffffffffffffffffffffffffffffffff1673ffffffffffffffffffffffffffffffffffffffff1681526020019081526020016000205414610859576040517f08c379a00000000000000000000000000000000000000000000000000000000081526004018080602001828103825260138152602001807f5573657220616c7265616479206578697374730000000000000000000000000081525060200191505060405180910390fd5b8284600073ffffffffffffffffffffffffffffffffffffffff168273ffffffffffffffffffffffffffffffffffffffff1614158015610899575060008151115b6108a257600080fd5b60405180604001604052808781526020018673ffffffffffffffffffffffffffffffffffffffff16815250600260008054815260200190815260200160002060008201518160000190805190602001906108fd929190610b47565b5060208201518160010160006101000a81548173ffffffffffffffffffffffffffffffffffffffff021916908373ffffffffffffffffffffffffffffffffffffffff160217905550905050600054600160008773ffffffffffffffffffffffffffffffffffffffff1673ffffffffffffffffffffffffffffffffffffffff16815260200190815260200160002081905550600054935060016000808282540192505081905550836000541415610a1b576040517f08c379a000000000000000000000000000000000000000000000000000000000815260040180806020018281038252601b8152602001807f657870656374656420696e6372656d656e74656420757365724964000000000081525060200191505060405180910390fd5b7f1c81d7053f5e6f875e0d7b584d3354071899b7dc927e6d7b48b58caa90cf3de884878760405180848152602001806020018373ffffffffffffffffffffffffffffffffffffffff1673ffffffffffffffffffffffffffffffffffffffff168152602001828103825284818151815260200191508051906020019080838360005b83811015610ab7578082015181840152602081019050610a9c565b50505050905090810190601f168015610ae45780820380516001836020036101000a031916815260200191505b5094505050505060405180910390a183935050505092915050565b50805460018160011615610100020316600290046000825580601f10610b255750610b44565b601f016020900490600052602060002090810190610b439190610bc7565b5b50565b828054600181600116156101000203166002900490600052602060002090601f016020900481019282601f10610b8857805160ff1916838001178555610bb6565b82800160010185558215610bb6579182015b82811115610bb5578251825591602001919060010190610b9a565b5b509050610bc39190610bc7565b5090565b610be991905b80821115610be5576000816000905550600101610bcd565b5090565b9056fea264697066735822122056f18939a8979239aa286dacbf0e82cb154a5d841dec4173647bd5b12120e39564736f6c63430006000033",
  "source": "// SPDX-License-Identifier: MIT\npragma solidity ^0.6.0;\n\ncontract User{\n    struct UserDetails{\n        string name;\n        address wallet;\n    }\n\n    uint public userId = 1;\n\n    // Mapping of user's wallet to their id\n    mapping(address => uint256) private usersWallet;\n\n    // Mapping of user's id to their details\n    mapping(uint256 => UserDetails) private users;\n\n    event UserCreated(\n        uint256 id,\n        string name,\n        address wallet\n    );\n\n    event UserUpdated(\n        uint256 id,\n        string name,\n        address wallet\n    );\n\n    modifier userExists(address wallet){\n        require(usersWallet[wallet] == 0, 'User already exists');\n        _;\n    }\n\n    modifier userCondition(address _wallet, string memory _name){\n        require(_wallet != address(0x0) && bytes(_name).length > 0);\n        _;\n    }\n\n    function createUser(string memory _name, address _wallet) public userExists(_wallet) userCondition(_wallet, _name) returns (uint256 _userId){\n\n        users[userId] = UserDetails(_name ,_wallet);\n        usersWallet[_wallet] = userId;\n\n        _userId = userId;\n        userId += 1;\n        require(userId != _userId, \"expected incremented userId\");\n\n        emit UserCreated(_userId, _name, _wallet);\n        return _userId;\n    }\n\n    function updateUser(string memory _name, address _wallet) userExists(_wallet) userCondition(_wallet, _name) public{\n        uint256 _id = usersWallet[msg.sender];\n\n        delete usersWallet[msg.sender];\n        delete users[_id];\n\n        users[_id] = UserDetails(_name,_wallet);\n        usersWallet[_wallet] = _id;\n\n        emit UserUpdated(_id, _name, _wallet);\n    }\n\n    function getUser(address _wallet) public view returns (uint256 _id, string memory _name){\n        _id = usersWallet[_wallet];\n        _name = users[_id].name;\n        return (_id, _name);\n    }\n}\n\n\n\n\n",
  "sourcePath": "/Users/rahulbansal/Desktop/Peer-to-Peer-Donation-dApp/contracts/User.sol",
  "compiler": {
    "name": "solc",
    "version": "0.6.0+commit.26b70077.Emscripten.clang"
  },
  "schemaVersion": "3.4.3",
  "updatedAt": "2022-05-10T19:40:57.479Z",
  "devdoc": {
    "methods": {}
  },
  "userdoc": {
    "methods": {}
  }
}