{
  "contractName": "User",
  "abi": [
    {
      "anonymous": false,
      "inputs": [
        {
          "indexed": false,
          "internalType": "uint256",
          "name": "id",
          "type": "uint256"
        },
        {
          "indexed": false,
          "internalType": "string",
          "name": "name",
          "type": "string"
        },
        {
          "indexed": false,
          "internalType": "address",
          "name": "wallet",
          "type": "address"
        }
      ],
      "name": "UserCreated",
      "type": "event"
    },
    {
      "anonymous": false,
      "inputs": [
        {
          "indexed": false,
          "internalType": "uint256",
          "name": "id",
          "type": "uint256"
        },
        {
          "indexed": false,
          "internalType": "string",
          "name": "name",
          "type": "string"
        },
        {
          "indexed": false,
          "internalType": "address",
          "name": "wallet",
          "type": "address"
        }
      ],
      "name": "UserUpdated",
      "type": "event"
    },
    {
      "inputs": [
        {
          "internalType": "uint256",
          "name": "_id",
          "type": "uint256"
        },
        {
          "internalType": "string",
          "name": "_name",
          "type": "string"
        },
        {
          "internalType": "address",
          "name": "_wallet",
          "type": "address"
        }
      ],
      "name": "createUser",
      "outputs": [],
      "stateMutability": "nonpayable",
      "type": "function"
    },
    {
      "inputs": [
        {
          "internalType": "string",
          "name": "_name",
          "type": "string"
        },
        {
          "internalType": "address",
          "name": "_wallet",
          "type": "address"
        }
      ],
      "name": "updateUser",
      "outputs": [],
      "stateMutability": "nonpayable",
      "type": "function"
    }
  ],
  "bytecode": "0x608060405234801561001057600080fd5b50610848806100206000396000f3fe608060405234801561001057600080fd5b50600436106100365760003560e01c8063a48435631461003b578063fb5197a314610116575b600080fd5b6101146004803603604081101561005157600080fd5b810190808035906020019064010000000081111561006e57600080fd5b82018360208201111561008057600080fd5b803590602001918460018302840111640100000000831117156100a257600080fd5b91908080601f016020809104026020016040519081016040528093929190818152602001838380828437600081840152601f19601f820116905080830192505050505050509192919290803573ffffffffffffffffffffffffffffffffffffffff1690602001909291905050506101fb565b005b6101f96004803603606081101561012c57600080fd5b81019080803590602001909291908035906020019064010000000081111561015357600080fd5b82018360208201111561016557600080fd5b8035906020019184600183028401116401000000008311171561018757600080fd5b91908080601f016020809104026020016040519081016040528093929190818152602001838380828437600081840152601f19601f820116905080830192505050505050509192919290803573ffffffffffffffffffffffffffffffffffffffff169060200190929190505050610555565b005b60008060008373ffffffffffffffffffffffffffffffffffffffff1673ffffffffffffffffffffffffffffffffffffffff1681526020019081526020016000205490506001600082815260200190815260200160002060010160009054906101000a900473ffffffffffffffffffffffffffffffffffffffff1673ffffffffffffffffffffffffffffffffffffffff163373ffffffffffffffffffffffffffffffffffffffff1614610315576040517f08c379a00000000000000000000000000000000000000000000000000000000081526004018080602001828103825260168152602001807f596f7520617265206e6f7420617574686f72697a65640000000000000000000081525060200191505060405180910390fd5b600081141561038c576040517f08c379a00000000000000000000000000000000000000000000000000000000081526004018080602001828103825260138152602001807f5573657220646f6573206e6f742065786973740000000000000000000000000081525060200191505060405180910390fd5b600073ffffffffffffffffffffffffffffffffffffffff168273ffffffffffffffffffffffffffffffffffffffff16141580156103ca575060008351115b6103d357600080fd5b60405180604001604052808481526020018373ffffffffffffffffffffffffffffffffffffffff1681525060016000838152602001908152602001600020600082015181600001908051906020019061042d92919061076d565b5060208201518160010160006101000a81548173ffffffffffffffffffffffffffffffffffffffff021916908373ffffffffffffffffffffffffffffffffffffffff1602179055509050507f2faa3c2af7bd2b475175fb9f0039692c05247b48687f580a1b184c286478248681848460405180848152602001806020018373ffffffffffffffffffffffffffffffffffffffff1673ffffffffffffffffffffffffffffffffffffffff168152602001828103825284818151815260200191508051906020019080838360005b838110156105145780820151818401526020810190506104f9565b50505050905090810190601f1680156105415780820380516001836020036101000a031916815260200191505b5094505050505060405180910390a1505050565b600073ffffffffffffffffffffffffffffffffffffffff168173ffffffffffffffffffffffffffffffffffffffff16141580156105925750600083115b801561059f575060008251115b6105a857600080fd5b60405180604001604052808381526020018273ffffffffffffffffffffffffffffffffffffffff1681525060016000858152602001908152602001600020600082015181600001908051906020019061060292919061076d565b5060208201518160010160006101000a81548173ffffffffffffffffffffffffffffffffffffffff021916908373ffffffffffffffffffffffffffffffffffffffff160217905550905050826000808373ffffffffffffffffffffffffffffffffffffffff1673ffffffffffffffffffffffffffffffffffffffff168152602001908152602001600020819055507f1c81d7053f5e6f875e0d7b584d3354071899b7dc927e6d7b48b58caa90cf3de883838360405180848152602001806020018373ffffffffffffffffffffffffffffffffffffffff1673ffffffffffffffffffffffffffffffffffffffff168152602001828103825284818151815260200191508051906020019080838360005b8381101561072c578082015181840152602081019050610711565b50505050905090810190601f1680156107595780820380516001836020036101000a031916815260200191505b5094505050505060405180910390a1505050565b828054600181600116156101000203166002900490600052602060002090601f016020900481019282601f106107ae57805160ff19168380011785556107dc565b828001600101855582156107dc579182015b828111156107db5782518255916020019190600101906107c0565b5b5090506107e991906107ed565b5090565b61080f91905b8082111561080b5760008160009055506001016107f3565b5090565b9056fea264697066735822122029e78f22a8c4b9eebe59e94ac5c41c5c4bb40c36778a7158c224fee29a86b14164736f6c63430006000033",
  "source": "pragma solidity ^0.6.0;\n\ncontract User{\n    struct UserDetails{\n        string name;\n        address wallet;\n    }\n\n    // Mapping of user's wallet to their id\n    mapping(address => uint256) private usersWallet;\n\n    // Mapping of user's id to their details\n    mapping(uint256 => UserDetails) private users;\n\n    event UserCreated(\n        uint256 id,\n        string name,\n        address wallet\n    );\n\n    event UserUpdated(\n        uint256 id,\n        string name,\n        address wallet\n    );\n\n    function createUser(uint256 _id, string memory _name, address _wallet) public{\n        require(_wallet != address(0x0) && _id > 0 && bytes(_name).length > 0);\n        users[_id] = UserDetails(_name,_wallet);\n        usersWallet[_wallet] = _id;\n\n        emit UserCreated(_id, _name, _wallet);\n    }\n\n    function updateUser(string memory _name, address _wallet) public{\n        uint256 _id = usersWallet[_wallet];\n        require(msg.sender == users[_id].wallet, \"You are not authorized\");\n        require(_id != 0, \"User does not exist\");\n        require(_wallet != address(0x0) && bytes(_name).length > 0);\n        users[_id] = UserDetails(_name,_wallet);\n\n        emit UserUpdated(_id, _name, _wallet);\n    }\n}\n\n\n\n\n",
  "sourcePath": "/Users/rahulbansal/Desktop/Peer-to-Peer-Donation-dApp/contracts/User.sol",
  "compiler": {
    "name": "solc",
    "version": "0.6.0+commit.26b70077.Emscripten.clang"
  },
  "schemaVersion": "3.4.3",
  "updatedAt": "2022-05-09T19:37:39.751Z",
  "networkType": "ethereum",
  "devdoc": {
    "methods": {}
  },
  "userdoc": {
    "methods": {}
  }
}